:100000000EC01DC01CC01BC01AC019C018C017C02C
:1000100016C015C014C013C012C011C010C01124E6
:100020001FBECFE5D1E0DEBFCDBF20E0A0E6B0E04F
:1000300001C01D92A536B207E1F7E9D11EC2E0CF9B
:10004000459788F0672B79F4809164008F5F8D303D
:1000500008F081E0809364006091640080E090E0AB
:10006000FED181E0089580E00895B49B03C0109212
:10007000630003C081E0809363006091630061309E
:1000800049F4809161009091620001969093620022
:100090008093610080916000861307C070E08091BA
:1000A000610090916200CCDF01C080E0909163001C
:1000B000911108C020916000211104C010926200CB
:1000C0001092610090936000089590E0981710F0EE
:1000D00020E201C022E2961708F42160941708F488
:1000E000246028BB9F5F943189F7BFCFDF92EF92E6
:1000F000FF920F931F93CF93DF93F82EE62ED42E0B
:100100008901C0E0D0E0C017D10741F04D2D6E2D20
:100110008F2DDBDF813019F02196F5CF80E0DF9164
:10012000CF911F910F91FF90EF90DF900895CF93A3
:10013000C0E02FE732E040E06C2F84E1D7DF813070
:1001400009F43CC0CF5FC531A1F7C3E12FE732E02E
:1001500040E064E18C2FCADF813081F1C150B0F7FB
:10016000C1E02FE732E04C2F64E180E0BFDF813057
:1001700029F1CF5FC531A9F7C3E12FE732E044E1B0
:100180006C2F80E0B3DF8130C9F0C150B0F7C1E01F
:100190002FE732E044E160E08C2FA8DF813071F07E
:1001A000CF5FC531A9F7C3E12FE732E04C2F60E004
:1001B00084E19CDF813011F0C150B0F7CF910895F8
:1001C000BF92CF92DF92EF92FF920F931F93CF9344
:1001D000DF93D82EC62EB42E7901C0E0D0E0CE1524
:1001E000DF05F1F00DE110E04B2D6C2D8D2D6DDF55
:1001F000813011F481E015C001501109011511057C
:1002000099F70DE110E040E060E080E05EDF8130D2
:1002100089F30150110901151105A9F72196DFCFC6
:1002200080E0DF91CF911F910F91FF90EF90DF90D1
:10023000CF90BF900895CF93C0E02BEE31E040E027
:100240006C2F84E153DF813009F463C0CF5FC53187
:10025000A1F723E230E040E064E184E1B1DFC4E1F2
:100260002BEE31E040E064E180E040DF813009F4D2
:1002700050C0C150A9F723E230E040E065E184E1DD
:100280009FDFC1E02BEE31E04C2F64E180E02EDFF8
:10029000813009F43EC0CF5FC531A1F723E230E0E1
:1002A00044E160E084E18CDFC3E12BEE31E044E126
:1002B0006C2F80E01BDF813061F1C150B0F723E289
:1002C00030E044E160E080E07BDFC1E02BEE31E034
:1002D00044E160E08C2F0ADF8130D9F0CF5FC53177
:1002E000A9F723E230E044E160E084E169DFC3E1A3
:1002F0002BEE31E04C2F60E084E1F8DE813049F0F4
:10030000C150B0F723E230E040E060E084E1CF91FB
:1003100057CFCF910895CF93C0E029E030E040E07F
:100320006C2F84E14DDF813009F43CC0CF5FC531D3
:10033000A1F7C3E129E030E040E064E18C2F40DF29
:10034000813081F1C150B0F7C1E029E030E04C2F9D
:1003500064E180E035DF813029F1CF5FC531A9F755
:10036000C3E129E030E044E16C2F80E029DF8130F7
:10037000C9F0C150B0F7C1E029E030E044E160E0ED
:100380008C2F1EDF813071F0CF5FC531A9F7C3E13B
:1003900029E030E04C2F60E084E112DF813011F081
:1003A000C150B0F7CF910895823031F0833041F0E1
:1003B000813041F440E01DC040E065E084E124C0AC
:1003C00040E01CC0853039F0863041F0843051F473
:1003D00040E064E105C044E165E002C044E160E062
:1003E00080E012C0883039F0893039F0873041F42C
:1003F00044E160E0E3CF45E0E0CF44E164E1DECFFB
:10040000811103C040E060E060CE80E0089580E0AC
:1004100090E01DD0809364008D3018F081E08093CF
:10042000640087E087BB87E188BB809164008A30E5
:1004300010F4BADFFACF8B3031F08C3031F08A30E3
:10044000A1F775DEF2CFF7DEF0CF65DFEECFE199F1
:10045000FECF1FBA8EBBE09A99278DB30895262F41
:10046000E199FECF1CBA1FBA8EBB2DBB0FB6F89414
:0E047000E29AE19A0FBE01960895F894FFCF2C
:00000001FF
