:1000000009C016C015C014C013C012C011C010C062
:100010000FC00EC011241FBECFE9CDBF20E0A0E667
:10002000B0E001C01D92A836B207E1F709D1D4C1F2
:10003000E7CF813A2FE0920720F081E080936700BC
:1000400008958D3B22E0920778F0672BB1F58091FF
:100050006500813011F482E001C081E08093650089
:1000600081E08093660008950F9738F180916700D2
:10007000813029F4672B09F510926700089541300B
:1000800061F4672BD1F4809166008F5F80936600E6
:100090008A3088F0409366000EC0423071F4672BBE
:1000A00061F480916600815080936600811103C0E5
:1000B00089E08093660081E0089580E00895CF9301
:1000C000DF93B49B03C01092640006C081E080936C
:1000D000640082E080936300C0916400C13049F401
:1000E00080916100909162000196909362008093EC
:1000F0006100D0916000DC130AC06C2F70E0409169
:100100006300809161009091620093DF01C080E004
:10011000C11108C0D11106C0109262001092610096
:1001200010926300C0936000DF91CF91089590E03A
:10013000981710F020E201C022E2961708F421601F
:10014000941708F4246028BB9F5F943189F7B7CFD8
:100150000F931F93CF93DF93D82F162F042FC6E949
:10016000402F612F8D2FE3DF813029F08FEF8C0F2F
:1001700011F0C82FF5CFDF91CF911F910F91089506
:10018000823031F0833041F0813041F440E01DC0D5
:1001900040E065E084E124C040E01CC0853039F0D7
:1001A000863041F0843051F440E064E105C044E120
:1001B00065E002C044E160E080E012C0883039F0C0
:1001C000893039F0873041F444E160E0E3CF45E025
:1001D000E0CF44E164E1DECF811103C040E060E0A4
:1001E000A6CF80E00895EF92FF920F931F93CF93D5
:1001F000DF931F92CDB7DD27E12CF12C082F10E003
:10020000E016F10650F4862F6983BADF69818130E8
:1002100029F08FEFE81AF80AF3CF80E00F90DF9112
:10022000CF911F910F91FF90EF900895CF93C62F1C
:10023000642FD9DF60E08C2FD6DF80E0CF91089566
:1002400087E087BB87E188BB81E08093660080936D
:1002500065008093670080916700813011F480E031
:1002600006C080916500813021F48091660088DFAE
:10027000F2CF823081F780916600813021F08230A8
:1002800089F4C1E008C0C1E06C2F80EFACDFCF5F24
:10029000C830D1F707C04C2F6CE38CE3C7DFCF5FCA
:1002A000C830C9F780916600833089F0809166007C
:1002B000853009F461C0863009F464C0843009F0E7
:1002C00069C046E06CE38CE3B1DF43E060C0C0E0AE
:1002D00040E06C2F84E13CDF813029F0CF5FC531F5
:1002E000B9F7C0E001C0C1E0D3E140E064E18D2F87
:1002F0002FDF813031F0C13029F0D150B0F7C0E0AC
:1003000001C0C1E0D1E04D2F64E180E021DF813008
:1003100039F0C13031F0DF5FD531A9F7C0E001C05D
:10032000C1E0D3E144E16D2F80E012DF813031F094
:10033000C13029F0D150B0F7C0E001C0C1E0D1E038
:1003400044E160E08D2F04DF813039F0C13031F0BD
:10035000DF5FD531A9F7C0E001C0C1E0D3E14D2F87
:1003600060E084E1F5DE813009F4A0CFC13009F40A
:100370009DCFD150A0F79ACF41E06CE38CE356DFDC
:1003800044E005C042E06CE38CE350DF47E06CE3FF
:100390008CE34CDF80916600883039F0893059F069
:1003A000873009F058CF49E013C049E06EE18EE193
:1003B0003DDF41E005C049E06EE18EE137DF44E01A
:1003C0006EE18EE133DF49E06EE18EE12FDF46E042
:0C03D0006EE18EE12BDF3FCFF894FFCFF1
:00000001FF
