:1000000009C016C015C014C013C012C011C010C062
:100010000FC00EC011241FBECFE9CDBF20E0A0E667
:10002000B0E001C01D92A636B207E1F71CD192C123
:10003000E7CF8D3B22E09207B8F0672B49F580911E
:100040006400813011F482E001C081E0809364009B
:1000500081E08093650061E081E090E06ED1609185
:10006000640080E090E011C08135910588F0672B35
:1000700079F4809165008F5F863008F081E080938D
:1000800065006091650081E090E057D181E00895BE
:1000900080E00895B49B03C01092630003C081E028
:1000A0008093630060916300613049F48091610046
:1000B000909162000196909362008093610080911C
:1000C0006000861307C070E080916100909162002B
:1000D000B0DF01C080E090916300911108C02091D1
:1000E0006000211104C01092620010926100909390
:1000F0006000089590E0981710F422E201C020E219
:10010000961708F42160941708F4246028BB9F5FB9
:10011000903A89F7BFDF0895A1E0B0E0E1E9F0E0AF
:10012000E4C0E82E162F042FF12CF21651F0402FC8
:10013000612F8E2D2983DEDF2981813019F0F39420
:10014000F4CF80E02196E6E0E7C0CF93DF93C82F9D
:10015000D0E02C2F40E06D2F80EADEDF813011F4FB
:1001600081E038C0DF5FD13AA1F7DFE92C2F40E012
:1001700060EA8D2FD1DF813099F3D150B8F7D1E00B
:100180002C2F4D2F60EA80E0C7DF813049F3DF5F1D
:10019000D13AB1F7DFE92C2F40EA6D2F80E0BCDFC8
:1001A0008130F1F2D150B8F7D1E02C2F40EA60E075
:1001B0008D2FB2DF8130A1F2DF5FD13AB1F7DFE9F5
:1001C0002C2F4D2F60E080EAA7DF813049F2D1501B
:1001D000B8F780E0DF91CF910895811103C040E02E
:1001E00060E03DC0833091F040F4813069F08230AE
:1001F00099F540E060E080EA32C0843051F085300B
:1002000059F582E3A2DF2CC040EA27C040E060EA53
:1002100025C061E082E344D0813011F491E021C037
:1002200060E082E33DD08130C9F362E082E338D000
:100230008130A1F360E082E333D0813079F363E071
:1002400082E32ED0813051F360E082E329D091E047
:10025000813039F090E005C040E060E080E04ADFA6
:10026000982F892F089581E090E060D0C82F809367
:10027000650080E090E05AD080936400C63018F0AA
:1002800091E090936500823018F081E080936400E3
:1002900087E087BB87E188BB809165009EDFFCCF4C
:1002A000A1E0B0E0E5E5F1E020C000E010E0E82EDC
:1002B000F12C0E151F0548F4862F69838EDF6981A6
:1002C000813021F00F5F1F4FF4CF80E02196E6E0F0
:1002D00023C02F923F924F925F926F927F928F92A4
:1002E0009F92AF92BF92CF92DF92EF92FF920F93C5
:1002F0001F93CF93DF93CDB7CA1BCDBFDD270994E2
:100300002A88398848885F846E847D848C849B84A5
:10031000AA84B984C884DF80EE80FD800C811B81B3
:10032000AA81D981CE0FCDBFCA2F0895E199FECF02
:100330008EBBE09A99278DB30895262FE199FECFC1
:100340001CBA8EBB2DBB0FB6F894E29AE19A0FBE91
:0803500001960895F894FFCF17
:00000001FF
