:1000000015C024C023C022C021C020C01FC01EC0F4
:100010001DC01CC01BC01AC019C018C017C03DC6E7
:100020003EC644C645C646C647C648C611241FBE7E
:10003000CFE5D1E0DEBFCDBF20E0A0E6B0E001C05B
:100040001D92AB39B207E1F741D6F8C6D9CFCF93AD
:10005000DF93809177008A3018F081E080937700F9
:1000600080917500883018F081E080937500CAE7B0
:10007000D0E0A5E6B0E0EBE8F0E081E09FE09E0F85
:1000800020812A3008F080832C91283008F08C934E
:100090002881211101C088833196219611969E13E3
:1000A000EFCF80917900803110F01092790080912B
:1000B000790090917800981710F0809378008091E3
:1000C0007600823010F010927600DF91CF91089583
:1000D00084E390E095D68093770083E390E090D618
:1000E0008093750040E150E063E270E08BE890E0BF
:1000F00078D640E150E063E170E085E690E071D6AB
:1001000040E150E060E070E08AE790E06AD681E18B
:1001100090E076D68093780082E190E071D680936B
:10012000790080E190E06CD680937600089560912C
:10013000770084E390E074D66091750083E390E0EB
:100140006FD640E150E063E270E08BE890E060D66B
:1001500040E150E063E170E085E690E059D640E18F
:1001600050E060E070E08AE790E052D6609178005D
:1001700081E190E055D66091790082E190E050D61F
:100180006091760080E190E04BD60895CF934130A6
:1001900009F08EC0813526E4920760F08CE08093F0
:1001A0008A00662311F0C0E0BAC010927800109265
:1001B000790012C0813127E2920788F08BE08093AA
:1001C0008A006111F0CF80917600811105C04093C3
:1001D00076004093780029C01092760026C0893BB3
:1001E0002BE0920740F1809176008111DCCF809165
:1001F00079008F30C0F69AE090938A006111D3CFD6
:100200008F5F8093790090E0FC01E557FF4F2091CC
:1002100077002083FC01EB59FF4F2091750020836C
:10022000FC01E658FF4F2FE1208311DF80DF1092A1
:100230008A00C1E074C08D3B22E09207B8F0809143
:1002400076008111B0CF8DE080938A006111ABCF31
:10025000809175008F5F883018F48093750002C01C
:100260004093750081E080937700E0CF0F9708F40A
:100270009ACF611198CF8091760081110BC0809147
:1002800077008F5F8A3018F4809377000EC0409318
:1002900077000BC0809178008F5F809378009091F9
:1002A0007900981710F440937800D1DE40DFC1CF79
:1002B000423009F078CFC0917600C13009F073CF99
:1002C000893B2BE0920760F08AE080938A006111FD
:1002D0006ACFE0917800F0E0E658FF4F8FE11AC056
:1002E0008D3B22E0920750F061115DCFE0917800E4
:1002F000F0E0E658FF4F808183500CC00F9708F460
:1003000052CF611150CFE0917800F0E0E658FF4FF6
:1003100080818D5F80839BDE0ADF10928A008C2FA4
:10032000CF91089586B384FF03C01092640005C086
:1003300091E0909364009093630083FD06C081E098
:100340008093640082E08093630060916400613078
:1003500049F480916100909162000196909362004F
:100360008093610080916000861308C04091630013
:10037000809161009091620009DF01C080E090915E
:10038000640091110AC020916000211106C01092F2
:1003900062001092610010926300909360000895D3
:1003A00090E0981710F42AE101C028E1961708F4AC
:1003B0002160941708F4246028BB9F5F943189F76B
:1003C000B1DF0895CF92DF92FF920F931F93CF93E7
:1003D000DF93182F062FF42E822F90E06AE070E052
:1003E000B8D46C01602F812FDBDFC0E0D0E0CC15EA
:1003F000DD0541F04F2D602F812FD2DF813019F0C4
:100400002196F5CF80E0DF91CF911F910F91FF9062
:10041000DF90CF900895A0E0B0E0E0E1F2E0B4C456
:10042000D82F162FF42ED22EC1E04C2F4F214E295B
:100430009C2F9123692F602B2C2D8C2F8D238D29A0
:10044000C1DF813011F481E01DC080918A008111EB
:10045000FACFCF5FC53149F7C4E19C2F9F21492FC7
:100460004E299C2F9123692F602B2C2D8C2F8D23AF
:100470008D29A8DF813039F380918A008111E3CF83
:10048000C15059F7CDB7DEB7E8E09AC4CF92DF92FA
:10049000EF920F93823059F0833081F08130A9F4CC
:1004A000C62ED12CE12C00E020E040E048C0C62E52
:1004B000D12CE12C00E020E040E031C0C62ED12C50
:1004C000E12C00E020E040E00CC0853061F0863097
:1004D00099F08430C1F4C62ED12CE12C00E020E04C
:1004E0004FEF6FEF07C0C62ED12CE12C00E020E0CB
:1004F0004FEF60E080E025C0C62ED12CE12C00E05B
:1005000020E04FEF1CC0883061F0893091F08730D7
:10051000D1F4C62ED12CE12C00E020E04FEF6FEF9C
:100520000FC0C62ED12CE12C00E02FEF40E067E099
:1005300007C0C62ED12CE12C00E029E147E060E0A5
:100540008FEF69DF01C080E00F91EF90DF90CF90D7
:100550000895CF93DF93C82FD0E02C2F40E06D2F6C
:1005600084E130DF813009F450C080918A0081112C
:100570004CC0DF5FD53189F7D3E12C2F40E064E137
:100580008D2F20DF813009F440C080918A008111D5
:100590003CC0D15090F7D1E02C2F4D2F64E180E08A
:1005A00011DF813091F180918A0081112EC0DF5FCF
:1005B000D53191F7D3E12C2F44E16D2F80E002DF9C
:1005C000813019F180918A0081111FC0D15098F7B4
:1005D000D1E02C2F44E160E08D2FF4DE8130A9F0D2
:1005E00080918A00811111C0DF5FD53191F7D3E18D
:1005F0002C2F4D2F60E084E1E5DE813031F08091D9
:100600008A00811102C0D15098F7DF91CF910895EF
:10061000A0E0B0E0EDE0F3E0B7C3D82EE62EF42E74
:10062000C22ED0E010E000E0C4E12C2D4D2F612F50
:10063000802FC8DE813061F080918A00811107C06F
:10064000C1500D0D1E0DDF0DC111EFCF01C081E0B6
:10065000CDB7DEB7E8E0B4C3CF93C4E122E04C2FBE
:100660006C2F84E1AFDE813009F44FC080918A00A5
:1006700081114BC0C15091F722E040E06C2F84E122
:10068000A1DE813009F441C080918A0081113DC012
:10069000CF5FC43189F722E040E064E18C2F92DE25
:1006A000813099F180918A0081112FC0C15099F752
:1006B00022E04C2F64E180E085DE813031F18091D1
:1006C0008A00811122C0CF5FC43191F722E044E15A
:1006D0006C2F80E077DE8130C1F080918A0081113B
:1006E00014C0C15099F7C4E122E04C2F60E080E0D3
:1006F00069DE813051F080918A00811106C0C150BD
:1007000099F72AE040E060E05DDECF910895823005
:1007100059F0833081F08130A9F42AE040E060E0B4
:1007200080E050DE40E029C02AE040E060E080E068
:1007300049DE40E031C02AE040E060E080E042DE97
:1007400040E032C0853059F0863089F08430C1F401
:100750002AE040E060E080E035DE40E006C02AE0CC
:1007600040E060E080E02EDE41E061E007C02AE08A
:1007700040E060E080E026DE41E060E080E016C01E
:10078000883061F0893079F0873091F42AE040E0D8
:1007900060E080E017DE41E060E007C02AE040E072
:1007A00060E080E00FDE41E061E081E0F9DD089586
:1007B00080E00895823031F0833031F0813031F4BF
:1007C00040E019C040E01BC040E01CC0853039F05B
:1007D000863041F0843041F440E064E12BC044E1D4
:1007E00065E028C044E125C0883041F0893049F0F7
:1007F000873051F444E160E084E122C045E065E0E7
:10080000FBCF44E164E1F8CF8B3061F028F48A300B
:1008100099F440E063E00EC08C3039F08D3061F423
:1008200043E007C040E060E002C043E063E083E0F3
:1008300007C060E080E004C0811104C040E060E0D7
:10084000AFDD089580E00895A1E0B0E0E9E2F4E0D2
:100850009DC28C01E12CF12CE016F10651F0862F9F
:100860006983A8DF6981813029F08FEFE81AF80ADF
:10087000F3CF80E02196E6E0A5C20F931F93CF93BC
:10088000DF938C01C1E0D0E0BE01C801DDDF813023
:1008900041F080918A00811104C02196CA30D105AF
:1008A00099F7DF91CF911F910F910895CF93C62FA4
:1008B000833091F040F4813059F0823039F5262FA1
:1008C00040E061E00CC0843069F0853081F01EC0EA
:1008D000262F40E060E009C0262F41E060E080E084
:1008E00097DE39C0262F41E061E081E0F9CF262F65
:1008F00040E060E081E08CDE813069F180918A0027
:10090000811129C02C2F40E061E0EACF8730C9F087
:1009100018F4863039F01FC08830D1F08930D9F40E
:100920009BDE19C02C2F40E060E081E071DE813059
:1009300091F080918A0081110EC02C2F41E060E07F
:10094000CFCF8C2F90E064E670E003D202DE03C0CC
:100950008C2F90E092DFCF910895CF93DF93833077
:1009600001F128F4813041F0823059F03DC08430EB
:10097000D9F0853049F138C0C62FD0E061E070E091
:10098000A7C0C62FD0E064E070E0CE015DDF81300B
:1009900009F4AAC080918A008111A6C066E070E0C7
:1009A000A1C0C62FD0E060C0C62FD0E062E070E0EA
:1009B000CE014ADF813009F497C080918A0081110D
:1009C00093C065E070E08EC0C62FD0E061E070E0BB
:1009D000CE013ADF813009F487C080918A0081110D
:1009E00083C062E070E07EC0873031F118F4863059
:1009F00041F07AC0883009F444C0893009F450C00D
:100A000073C0C62FD0E060E070E0CE011DDF813002
:100A100009F46AC080918A00811166C061E070E0CB
:100A2000CE0112DF813009F45FC080918A0081110C
:100A30005BC064E070E01AC0C62FD0E060E070E0F8
:100A4000CE0102DF813009F44FC080918A0081110C
:100A50004BC061E070E0CE01F7DE813009F444C0A4
:100A600080918A00811140C066E070E0CE01ECDE2A
:100A70008130D1F180918A00811136C061E070E04F
:100A800031C0C62FD0E060E070E0CE01DDDE813005
:100A900059F180918A00811127C069E070E00EC091
:100AA000C62FD0E060E070E0CE01CEDE8130E1F014
:100AB00080918A00811118C064E070E0CE01C4DE2C
:100AC000813091F080918A0081110EC066E070E063
:100AD000CE01BADE813041F080918A00811104C0DC
:100AE00064E070E0CE01B0DEDF91CF910895CF9346
:100AF000DF93EB01642F70E0A7DE813011F481E019
:100B000010C080918A008111FACF60E070E0CE01C0
:100B10009BDE8130A1F381E090918A00911101C0A8
:100B200080E0DF91CF910895CF93DF938330E9F098
:100B300040F4813059F0823009F04FC0C62FD0E028
:100B40003FC0843009F1853071F147C0C62FD0E035
:100B500041E0BE01CE01CBDF813009F48CC0809131
:100B60008A00811188C044E083C0C62FD0E046E0EF
:100B7000BE01CE01BCDF813009F47DC080918A00C6
:100B8000811179C041E074C0C62FD0E042E0BE01BF
:100B9000CE01ADDF813009F46EC080918A008111F1
:100BA0006AC045E065C0C62FD0E041E0BE01CE017D
:100BB0009EDF813009F45FC080918A0081115BC0A3
:100BC00044E0BE01CE0193DF813009F454C080912E
:100BD0008A00811150C046E04BC0873069F038F47C
:100BE000863009F048C0C62FD0E041E037C08830D9
:100BF00039F0893041F03FC0C62FD0E044E02EC02C
:100C0000C62FD0E02AC0C62FD0E041E0BE01CE0101
:100C10006EDF813081F180918A0081112CC049E022
:100C2000BE01CE0164DF813031F180918A008111F3
:100C300022C044E0BE01CE015ADF8130E1F0809154
:100C40008A00811118C049E0BE01CE0150DF813019
:100C500091F080918A0081110EC046E0BE01CE0164
:100C600046DF813041F080918A00811104C049E063
:100C7000BE01CE013CDFDF91CF9108950F931F930A
:100C8000E82F862F642F0E2F10E0F8013197E73000
:100C9000F105B0F4E15FFF4F09948CDD14C0242FFF
:100CA00030E0482FB901C90122DF0DC0EFDB0BC0D6
:100CB0003BDF09C052DE07C0F9DD05C028DD03C0F7
:100CC00080E078DDC4D91F910F91089501DABFD972
:100CD00087E087BB8FE188BB10928A0080918A00F1
:100CE000811121C080917600811106C04FE1609191
:100CF00077008091750013C080917900882389F076
:100D00008091780090E0DC01A658BF4FFC01E557C8
:100D1000FF4FEC01CB59DF4F4C9160818881AEDFF2
:100D2000DDCF80E008C08A3031F08B3021F08C308C
:100D300011F08D3011F43EDDD1CF8E3039F441E029
:100D400064E670E082E390E0D2DEC8CF80E032DD7E
:100D5000C3CF0024552704C0080E591F880F991FC0
:100D6000009729F076956795B8F37105B9F7802D4E
:100D7000952F08952F923F924F925F926F927F929C
:100D80008F929F92AF92BF92CF92DF92EF92FF929B
:100D90000F931F93CF93DF93CDB7DEB7CA1BDB0B47
:100DA0000FB6F894DEBF0FBECDBF09942A883988EC
:100DB00048885F846E847D848C849B84AA84B984F3
:100DC000C884DF80EE80FD800C811B81AA81B981FF
:100DD000CE0FD11D0FB6F894DEBF0FBECDBFED0113
:100DE0000895DC01862FE82FE199FECF1FBA05C0D8
:100DF000EEBBE09AE3950DB20D924150C8F708950D
:100E0000E199FECF1FBA8EBBE09A99278DB3089562
:100E1000DC01862F02C02D9104D04150E0F70895E7
:100E2000262FE199FECF1CBA1FBA8EBB2DBB0FB681
:100E3000F894E29AE19A0FBE01960895F894FFCFD4
:00000001FF
