:1000000009C016C015C014C013C012C011C010C062
:100010000FC00EC011241FBECFE9CDBF20E0A0E667
:10002000B0E001C01D92A636B207E1F774D1A4C1B9
:10003000E7CF8D3B22E09207B8F0672B41F5809126
:100040006400813011F482E001C081E0809364009B
:1000500081E08093650061E081E090E07FD1609174
:10006000640080E090E010C0459788F0672B79F439
:10007000809165008F5F873008F081E08093650094
:100080006091650081E090E069D181E0089580E0B1
:100090000895B49B03C01092630003C081E0809375
:1000A000630060916300613049F480916100909138
:1000B00062000196909362008093610080916000DD
:1000C000861307C070E08091610090916200B1DFFB
:1000D00001C080E090916300911108C02091600000
:1000E000211104C010926200109261009093600090
:1000F000089590E0981710F020E201C022E29617D0
:1001000008F42160941708F4246028BB9F5F9431A1
:1001100089F7BFCF0F931F93CF93DF93D82F162F5D
:10012000042FCAEF402F612F8D2FE3DF813029F09C
:100130008FEF8C0F11F0C82FF5CFDF91CF911F916A
:100140000F910895823039F0843041F0813049F4C4
:1001500045E065E015C044E165E00EC044E160E0C3
:100160000BC0853059F0863029F0833059F444E1D2
:1001700060E006C044E164E180E008C044E164E17D
:1001800084E104C0811103C040E060E0B2CF80E0B0
:100190000895EF92FF920F931F93CF93DF931F92D7
:1001A000CDB7DD27E12CF12C082F10E0E016F10689
:1001B00050F4862F6983C6DF6981813029F08FEF83
:1001C000E81AF80AF3CF80E00F90DF91CF911F91EA
:1001D0000F91FF90EF900895CF93C62F642FD9DF32
:1001E00060E08C2FD6DF80E0CF910895CF9380918F
:1001F0006400813021F480916500CF91A3CF8230DB
:1002000009F087C080916500823061F0833099F0F9
:10021000813031F5C1E06C2F80EFBBDFCF5FC7309D
:10022000D1F71EC0C1E04C2F6CE38CE3D5DFCF5F6C
:10023000C730C9F715C0C1E044E16C2F80E06ADF28
:10024000813009F466C0CF5FC531B1F7C3E144E145
:100250006C2F80E05FDF813009F45BC0C150B8F7DC
:10026000809165008530D9F0863069F1843009F0DD
:1002700050C0C1E044E160E08C2F4CDF813009F4D4
:1002800048C0CF5FC531B1F7C3E144E160E08C2FD6
:1002900041DF813009F43DC0C150B8F73AC0C1E038
:1002A00044E16C2F84E136DF813099F1CF5FC531B5
:1002B000B9F7C3E144E16C2F84E12CDF813049F1CF
:1002C000C150C0F726C0C1E044E16C2F80E022DFBE
:1002D0008130F9F0CF5FC531B9F7C1E044E164E1A5
:1002E0008C2F18DF8130A9F0CF5FC531B9F7C3E19A
:1002F00044E16C2F84E10EDF813059F0C150C0F72A
:10030000C3E144E160E08C2F05DF813011F0C15082
:10031000C0F7CF91089581E090E018D0C82F809366
:10032000650080E090E012D080936400C73018F040
:1003300091E090936500833018F081E08093640031
:1003400087E087BB87E188BB51DFFECFE199FECF15
:100350001FBA8EBBE09A99278DB30895262FE19995
:10036000FECF1CBA1FBA8EBB2DBB0FB6F894E29A13
:0C037000E19A0FBE01960895F894FFCFAB
:00000001FF
