:1000000009C016C016C014C013C012C011C010C061
:100010000FC00EC011241FBECFE9CDBF20E0A0E667
:10002000B0E001C01D92A736B207E1F770D1DEC182
:10003000E7CF1F920F920FB60F9211248F938091EA
:100040006500811103C082E0809365008F910F905D
:100050000FBE0F901F90189587E087BB87E188BB84
:100060000895813A2FE0920728F0672BB1F410929F
:10007000650011C0459788F0672B79F48091660080
:100080008F5F873008F081E08093660060916600A2
:1000900081E090E09ED181E0089580E00895B49BD6
:1000A00003C01092630003C081E0809363006091FD
:1000B0006300613049F48091610090916200019683
:1000C000909362008093610080916000681307C084
:1000D00070E08091610090916200C3DF01C080E018
:1000E00090916300911108C020916000211104C01B
:1000F000109262001092610090936000089590E069
:10010000981710F422E201C020E2961708F421604B
:10011000941708F4246028BB9F5F943189F7BFCF00
:100120000F931F93CF93DF93D82F162F042FCAEF6F
:10013000402F612F8D2FE3DF813019F0C150C1F7BF
:1001400080E0DF91CF911F910F910895823039F0B7
:10015000843041F0813049F445E065E015C044E168
:1001600065E00EC044E160E00BC0853059F0863098
:1001700029F0833059F444E160E006C044E164E1D1
:1001800080E008C044E164E184E104C0811103C05F
:1001900040E060E0B4CF80E00895FF920F931F939A
:1001A000CF93DF93F62E00E010E0C82FD0E00C17BD
:1001B0001D0738F48F2DCADF813021F00F5F1F4FEC
:1001C000F6CF80E0DF91CF911F910F91FF900895BE
:1001D000CF93C62F642FE1DF60E08C2FDEDF80E05D
:1001E000CF910895CF9380916400813021F4809164
:1001F0006600CF91ABCF823009F087C08091660056
:10020000823061F0833099F0813031F5C1E06C2F9C
:1002100080EFC3DFCF5FC730D1F71EC0C1E04C2FE6
:100220006CE38CE3D5DFCF5FC730C9F715C0C1E001
:1002300044E16C2F80E074DF813009F466C0CF5F49
:10024000C531B1F7C3E144E16C2F80E069DF813053
:1002500009F45BC0C150B8F7809166008530D9F0D1
:10026000863069F1843009F050C0C1E044E160E0BB
:100270008C2F56DF813009F448C0CF5FC531B1F70C
:10028000C3E144E160E08C2F4BDF813009F43DC0D5
:10029000C150B8F73AC0C1E044E16C2F84E140DFBF
:1002A000813099F1CF5FC531B9F7C3E144E16C2FDB
:1002B00084E136DF813049F1C150C0F726C0C1E08A
:1002C00044E16C2F80E02CDF8130F9F0CF5FC53145
:1002D000B9F7C1E044E164E18C2F22DF8130A9F05D
:1002E000CF5FC531B9F7C3E144E16C2F84E118DF7A
:1002F000813059F0C150C0F7C3E144E160E08C2F78
:100300000FDF813011F0C150C0F7CF9108958AE01E
:10031000809365001BBE15BAF89481E090E052D03E
:10032000C82F8093660080E090E04CD080936400FA
:10033000C73018F091E090936600833018F081E0A8
:100340008093640089DEC0E1D0E21AE0809165000C
:10035000823009F581DE1BBE15BAF8941093650052
:1003600086B39AE086B3E7E8F3E13197F1F700C08E
:10037000000084FF03C01092650006C0915091F701
:1003800084FD02C086B3FCCF8BE792E90197F1F7B9
:1003900000C00000DBCF811113C017BAC8BB85B7FE
:1003A000877E806185BF85B7806285BFDBBFC5BBA7
:1003B000789410926500889585B78F7D85BFC6CFEC
:1003C00011DFC4CFE199FECF8EBBE09A99278DB3A0
:1003D0000895262FE199FECF1CBA8EBB2DBB0FB618
:1003E000F894E29AE19A0FBE01960895F894FFCF2F
:00000001FF
