:100000000EC028C028C026C025C024C023C022C0DE
:1000100021C020C01FC01EC01DC01CC01BC0112499
:100020001FBECFE5D2E0DEBFCDBF10E0A0E6B0E05E
:10003000EAE0F1E102C005900D92AC36B107D9F7C4
:1000400020E0ACE6B0E001C01D92A939B207E1F7AB
:10005000B5D759C8D5CF1F920F920FB60F92112462
:100060008F9380918200811103C082E0809382008F
:100070008F910F900FBE0F901F9018958091840064
:100080008A3018F083E080938400809181008C3066
:1000900018F087E08093810080918800843010F010
:1000A00010928800A1E7B0E0E9E8F0E081E09FE08D
:1000B0009E0F20812A3008F080832C912C3008F08C
:1000C0008C93319611969E13F4CF809186008031E7
:1000D00010F010928600809186009091850098170C
:1000E00010F08093850080918300823010F0109290
:1000F00083008AE080938200089586E290E0E4D74E
:100100008093840085E290E0DFD78093810084E2D1
:1001100090E0DAD7809388004FE050E064E170E02F
:1001200089E890E0C1D74FE050E064E070E081E7FB
:1001300090E0BAD782E090E0C7D78093850083E053
:1001400090E0C2D78093860081E090E0BDD7809395
:10015000830080E090E0B8D7809382008FCF6091D9
:10016000840086E290E0C1D76091810085E290E052
:10017000BCD76091240084E290E0B7D74FE050E014
:1001800064E170E089E890E0A7D74FE050E064E0D8
:1001900070E081E790E0A0D76091850082E090E078
:1001A000A4D76091860083E090E09FD760918300A0
:1001B00081E090E09AD76091820080E090E095C75E
:1001C00087E087BB87E188BB0895813526E49207E5
:1001D00060F08CE080938700672B11F080E0089539
:1001E000109285001092860013C0893C22E392078A
:1001F00098F08BE080938700672B81F780918300D4
:10020000811106C081E0809383008093850002C045
:100210001092830033DF3AC089352BE1920780F0DA
:1002200080E180938700672BC9F6809188008F5FFB
:10023000843018F48093880029C01092880026C06A
:10024000893B2BE0920748F08EE080938700672B74
:1002500029F683E08093820019C0893E23E092074B
:10026000C8F0809183008111B9CF8DE08093870021
:10027000672B09F0B3CF809181008F5F8C3008F03D
:1002800081E08093810081E08093840068DF109298
:10029000870022C08536910508F4A0CF672B09F0AE
:1002A0009DCF80918300811109C0809184008F5F70
:1002B0008A3008F081E0809384000CC08091850032
:1002C0008F5F8093850090918600981718F481E0E5
:1002D00080938500D3DE43DF81E00895B49B03C0A3
:1002E00010926F0003C081E080936F0060916F00F7
:1002F000613049F480916D0090916E000196909369
:100300006E0080936D0080916C00861307C070E0D2
:1003100080916D0090916E0058DF01C080E0909157
:100320006F00911108C020916C00211104C010923F
:100330006E0010926D0090936C00089590E09817F5
:1003400010F422E201C020E2961708F4216094170D
:1003500008F4246028BB9F5F9A3589F7809170006C
:100360008F5F823018F010927000B8CF80937000C9
:1003700080E00895DF92EF92FF920F931F93CF9347
:10038000DF93F82EE62ED42E8901C0E0D0E0E09174
:100390008800F0E0E859FF4FE0816E2F70E0C8015F
:1003A00072D6C817D90740F44D2D6E2D8F2DC6DF9C
:1003B000813019F02196EBCF80E0DF91CF911F9132
:1003C0000F91FF90EF90DF900895AF92BF92CF9280
:1003D000DF92EF92FF920F931F93CF93DF93182F2B
:1003E000F62EB42EA22ED1E0E0918800F0E0EC5978
:1003F000FF4FC081CD1738F14D2F4B214E296D2F66
:100400006F21602B96018D2F81238A29B3DF8130E4
:1004100011F481E01BC0809187008111FACFDF5F6A
:10042000E3CF4C2F4B214E296C2F6F21602B96016F
:100430008C2F81238A299EDF813059F38091870098
:100440008111E7CFC150C111ECCF80E0DF91CF9196
:100450001F910F91FF90EF90DF90CF90BF90AF90E2
:100460000895CF92DF92EF920F93823061F0833044
:1004700091F08130C1F4E8ECCE2ED12CE12C00E0DB
:1004800020E040E05AC078ECC72ED12CE12C00E0EF
:1004900020E040E036C068ECC62ED12CE12C00E014
:1004A00020E040E00DC0853069F08630A9F084304E
:1004B000D9F458ECC52ED12CE12C00E020E04FEF10
:1004C0006FEF08C048ECC42ED12CE12C00E020E0F6
:1004D0004FEF60E080E033C038ECC32ED12CE12C2C
:1004E00000E020E04FEF29C0883069F08930C9F082
:1004F000873039F528ECC22ED12CE12C00E020E029
:100500004FEF6FEF1BC0E0918800F0E0E05AFF4F23
:1005100098ECC92ED12CE12C00E02FEF40E0608157
:100520000DC0E0918800F0E0E05AFF4F88ECC82E43
:10053000D12CE12C00E02FEF408160E08FEF45DF10
:1005400001C080E00F91EF90DF90CF9008950F935E
:100550001F93CF93DF93EC0100E010E0E09188005F
:10056000F0E0EC59FF4F8081282F30E02017310751
:1005700070F09E0140E0602FFDDE813009F48EC0F6
:100580008091870081118AC00F5F1F4FE7CF01E084
:1005900010E0E0918800F0E0EC59FF4F8081282FB7
:1005A00030E02017310778F09E0140E0682F801B73
:1005B000E1DE813009F472C08091870081116EC044
:1005C0000F5F1F4FE6CF01E010E0E0918800F0E000
:1005D000EC59FF4F6081862F90E08017910770F0F3
:1005E0009E01402F80E0C6DE813009F457C0809123
:1005F0008700811153C00F5F1F4FE7CF01E010E06C
:10060000E0918800F0E0EC59FF4F4081842F90E0AA
:100610008017910770F0642F601B9E0180E0AADEB6
:100620008130E1F180918700811138C00F5F1F4F49
:10063000E7CF01E010E0E0918800F0E0EC59FF4FD7
:100640004081842F90E08017910768F09E0160E060
:10065000802F90DE813011F18091870081111EC0C2
:100660000F5F1F4FE8CF01E010E0E0918800F0E05D
:10067000EC59FF4F8081282F30E02017310770F0B0
:10068000482F401B9E0160E075DE813039F080917B
:100690008700811103C00F5F1F4FE7CFDF91CF911C
:1006A0001F910F910895DF92EF92FF920F931F9386
:1006B000CF93DF93F82EE62ED42E00E0D0E010E0AA
:1006C000C0E0E0918800F0E0EC59FF4F9081C9173D
:1006D00088F425E030E0402F6D2F812F4BDE8130F4
:1006E00061F01F0DDE0D0D0D80918700811104C09A
:1006F000CF5FE7CF80E001C081E0DF91CF911F9114
:100700000F91FF90EF90DF900895CF93C0E0E091BC
:100710008800F0E0EC59FF4F8081C81778F4682F0B
:100720006C1B22E030E0462F25DE813009F47FC0CB
:100730008091870081117BC0CF5FE9CFC0E0E0915D
:100740008800F0E0EC59FF4F22E030E040E06C2FF1
:10075000808110DE813009F46AC0809187008111A8
:1007600066C0CF5FCA3559F7C0E0E0918800F0E07D
:10077000EC59FF4F8081C81778F422E030E040E068
:10078000682F8C1BF7DD813009F451C08091870000
:1007900081114DC0CF5FE9CFC0E0E0918800F0E06B
:1007A000EC59FF4F6081C61768F422E030E04C2F0F
:1007B00080E0E0DD8130D9F180918700811137C080
:1007C000CF5FEBCFC0E0E0918800F0E0EC59FF4F45
:1007D0004081C41770F4642F6C1B22E030E080E08D
:1007E000C9DD813021F180918700811120C0CF5F68
:1007F000EACFC0E0E0918800F0E0EC59FF4F408183
:10080000C41770F44C1B22E030E060E080E0B2DD01
:10081000813069F080918700811109C0CF5FEACFF4
:100820002AE030E040E060E080E0CF91A3CDCF91BE
:1008300008958330D1F038F4813051F0823059F589
:1008400040E061E014C08430A1F08530B1F023C0F5
:1008500040E060C040E060E081E025DF813009F4E5
:100860005CC080918700811158C041E060E080E069
:100870001ACF41E061E081E0FBCF40E060E081E041
:1008800012DF813009F449C080918700811145C091
:1008900040E061E0EDCF873049F018F48630D1F2C6
:1008A0000895883039F08930B9F1089540E061E069
:1008B00080E0D3CF40E060E081E0F5DE813069F197
:1008C00080918700811129C040E061E081E0EBDE8A
:1008D000813019F18091870081111FC040E061E0F3
:1008E000E2DE8130D1F080918700811116C041E0B5
:1008F00061E0D9DE813089F08091870081110DC0DF
:1009000041E060E0D0DE813041F0809187008111CC
:1009100004C041E060E0AFCFF8CE0895823061F0CE
:10092000833091F08130C1F42AE030E040E060E0B3
:1009300080E020DD40E02EC02AE030E040E060E0D2
:1009400080E018DD40E036C02AE030E040E060E0C2
:1009500080E010DD40E03AC0853061F0863099F0EB
:100960008430D9F42AE030E040E060E080E002DD4D
:1009700040E007C02AE030E040E060E080E0FADCE0
:1009800043E063E008C02AE030E040E060E080E05F
:10099000F1DC43E060E080E01BC0883069F0893022
:1009A000A1F08730B1F42AE030E040E060E080E080
:1009B000E1DC43E060E00BC02AE030E040E060E0D2
:1009C00080E0D8DC41E061E002C043E063E083E026
:1009D000B5CC80E00895823061F08330B9F0813089
:1009E000E9F4E0918800F0E0EC59FF4F40E060E06E
:1009F0004FC08091880090E0FC01E05AFF4FDC017D
:100A0000AC59BF4F40E060818C9174C0E091880088
:100A1000F0E0EC59FF4F808140E043C0853061F049
:100A20008630B1F08430D9F4E0918800F0E0EC59E0
:100A3000FF4F40E060814CC08091880090E0FC0155
:100A4000EC59FF4FDC01A05ABF4F40816C9140C070
:100A5000E0918800F0E0EC59FF4F408138C08830C9
:100A600061F08930B9F08730F1F4E0918800F0E06E
:100A7000EC59FF4F8081482F3CC08091880090E066
:100A8000FC01E05AFF4F6081FC01EC59FF4F462FFB
:100A9000808130C0E0918800F0E0EC59FF4F808108
:100AA000482F682F27C08C3079F030F48A3049F015
:100AB0008B3081F440E017C08D3041F08E3081F0F2
:100AC00009C040E063E004C043E00BC043E060E0E5
:100AD00080E010C08F3021F0803141F443E003C04A
:100AE00040E063E001C060E083E004C0811103C026
:100AF00040E060E023CC80E00895FF920F931F93C5
:100B0000CF93DF938C01F62EC0E0D0E0E091880017
:100B1000F0E0E859FF4F2081622F70E0C801B3D2A6
:100B2000C817D90730F48F2D56DF813019F0219680
:100B3000EDCF80E0DF91CF911F910F91FF9008954D
:100B40000F931F93CF93DF938C01C1E0D0E0BE01E0
:100B5000C801D3DF813041F080918700811104C04A
:100B60002196CA30D10599F7DF91CF911F910F914E
:100B70000895CF93DF93833091F038F4813061F0A2
:100B80008230A9F482E390E00CC0843069F08530B3
:100B900071F48CED95E005C08AE090E002C086E932
:100BA00090E0DF91CF91D3CC84EF91E0FACF873002
:100BB00069F028F4863001F584E690E00CC08830B6
:100BC00041F08930C9F4C1E0D0E010C080E991E083
:100BD00002C080EB94E0DF91CF91B2CF809187008B
:100BE00081110AC02196C930D10531F0BE018DE2D4
:100BF00090E083DF813091F7DF91CF9108958330CA
:100C000061F128F4813049F08230B1F053C0843072
:100C100099F1853009F43FC04DC061E070E08CE38C
:100C200090E06BDF813009F4C7C0809187008111AB
:100C3000C3C064E070E00EC064E070E08CE390E05C
:100C40005CDF813009F4B8C0809187008111B4C0A5
:100C500066E070E08CE390E0AEC066E070E08CE3AC
:100C600090E04BDF813009F4A7C0809187008111AB
:100C7000A3C061E070E0EECF62E070E08CE390E052
:100C80003CDF813009F498C080918700811194C0C5
:100C900065E070E0DFCF61E070E08CE390E02DDF95
:100CA000813009F489C080918700811185C062E09C
:100CB00070E0D0CF873031F118F4863041F00895DC
:100CC000883009F445C0893009F450C0089560E0C7
:100CD00070E08DE290E011DF813009F46DC0809109
:100CE0008700811169C061E070E08DE290E005DF6E
:100CF000813009F461C08091870081115DC064E09A
:100D000070E01AC060E070E08DE290E0F6DE8130C5
:100D100009F452C08091870081114EC061E070E0FB
:100D20008DE290E0EADE813009F446C080918700D0
:100D3000811142C066E070E08DE290E0DEDE81303D
:100D4000D9F180918700811137C061E070E031C036
:100D500060E070E08DE290E0D0DE813069F180915A
:100D60008700811129C069E070E00DC060E070E08B
:100D70008DE290E0C2DE8130F9F080918700811130
:100D80001BC064E070E08DE290E0B7DE8130A1F03E
:100D900080918700811110C066E070E08DE290E0E4
:100DA000ACDE813049F080918700811105C064E09C
:100DB00070E08DE290E0A1CE0895CF93DF93EB0138
:100DC000642F70E09ADE813011F481E010C08091D0
:100DD00087008111FACF60E070E0CE018EDE8130B5
:100DE000A1F381E090918700911101C080E0DF9133
:100DF000CF9108958330D9F030F4813049F08230BA
:100E000009F440C04EC0843009F1853071F149C009
:100E100041E06DE270E08DE290E0CFDF813009F4D7
:100E200092C08091870081118EC044E055C046E099
:100E30006DE270E08DE290E0C0DF813009F483C0A4
:100E40008091870081117FC041E046C042E06DE2A1
:100E500070E08DE290E0B1DF813009F474C08091E0
:100E60008700811170C045E037C041E06DE270E05D
:100E70008DE290E0A2DF813009F465C080918700A7
:100E8000811161C044E06DE270E08DE290E095DF99
:100E9000813009F458C080918700811154C046E028
:100EA0001BC0873061F018F4863039F0089588301F
:100EB00009F447C08930A9F0089541E001C044E039
:100EC0006DE270E08DE290E078DF8130E1F18091B9
:100ED0008700811138C049E06DE270E08DE290E05A
:100EE0006CCF41E06DE270E08DE290E066DF813032
:100EF00051F180918700811126C049E06DE270E0D8
:100F00008DE290E05ADF8130F1F08091870081110D
:100F10001AC044E06DE270E08DE290E04EDF813077
:100F200091F08091870081110EC049E06DE270E080
:100F30008DE290E042DF813031F0809187008111B5
:100F400002C046E0BDCF0895982F862F9330B1F0B0
:100F500050F4913091F09230E9F4462F64E170E062
:100F600084E190E010C0943079F0953099F4462FE8
:100F700064EF71E084EF91E006C02DCD462F62E36F
:100F800070E082E390E019CF462F64E670E084E6DB
:100F900090E0F9CF983071F028F4963049F097300E
:100FA00041F008959A3041F030F09B3031F00895CF
:100FB00058CADFCD1FCF23CE3CCCB0CC9ED800D9B1
:100FC0001BBE15BAF89410928700C0E2809182008F
:100FD0008230A1F4F5D81BBE15BAF8948AE080934C
:100FE000820086B384FFFDCF2FE788E391E0215094
:100FF00080409040E1F700C00000E8CF8330A1F4CA
:1010000017BA90E198BB85B7877E806185BF85B7A9
:10101000806285BFCBBF95BB789410928200889583
:1010200085B78F7D85BFD2CF8091870081111AC08F
:1010300080918300811105C06091840080918100BE
:101040000FC0809186008823D9F08091850090E0C0
:10105000FC01E757FF4FDC01AF58BF4F60818C9117
:1010600073DFB4CF8A3069F08B3059F08C3049F09F
:101070008D3039F08E3029F08F3019F0803109F041
:1010800080E0A9DCA3CF0024552704C0080E591F17
:10109000880F991F009729F076956795B8F3710529
:1010A000B9F7802D952F0895DC01CB01FC01E19962
:1010B000FECF06C0FFBBEEBBE09A31960DB20D929B
:1010C00041505040B8F70895E199FECF9FBB8EBBC9
:1010D000E09A99278DB30895DC01CB0102C02D91D0
:1010E00005D041505040D8F70895262FE199FECF02
:1010F0001CBA9FBB8EBB2DBB0FB6F894E29AE19A47
:0A1100000FBE01960895F894FFCF8A
:0C110A001B0D04025A2D0F090101010108
:00000001FF
