:100000000EC028C028C026C025C024C023C022C0DE
:1000100021C020C01FC01EC01DC01CC01BC0112499
:100020001FBECFE5D2E0DEBFCDBF10E0A0E6B0E05E
:10003000E4E8F5E102C005900D92A837B107D9F7C1
:1000400020E0A8E7B0E001C01D92A53AB207E1F7B1
:10005000E2D896CAD5CF1F920F920FB60F921124F5
:100060008F9380918E00811103C082E080938E0077
:100070008F910F900FBE0F901F9018958091900058
:100080008A3018F083E08093900080918D008C304E
:1000900018F087E080938D0080919400843010F0F8
:1000A00010929400E5E9F0E0ADE7B0E081E09081E6
:1000B0009A3008F080839C919C3008F08C933196A4
:1000C000119690E0E43AF90791F78091920080311F
:1000D00010F01092920080919200909191009817E8
:1000E00010F08093910080918F00823010F0109278
:1000F0008F008AE080938E00089586E290E021DAF6
:100100008093900085E290E01CDA80938D0084E279
:1001100090E017DA809394004FE050E064E170E0E3
:1001200085E990E0FED94FE050E064E070E08DE7B3
:1001300090E0F7D982E090E004DA8093910083E0C8
:1001400090E0FFD98093920081E090E0FAD980930B
:100150008F0080E090E0F5D980938E008FCF609182
:10016000900086E290E0FED960918D0085E290E0FB
:10017000F9D96091240084E290E0F4D94FE050E096
:1001800064E170E085E990E0E4D94FE050E064E09C
:1001900070E08DE790E0DDD96091910082E090E021
:1001A000E1D96091920083E090E0DCD960918F000A
:1001B00081E090E0D7D960918E0080E090E0D2C9D4
:1001C00087E087BB87E188BB0895813526E49207E5
:1001D00060F08CE080939300672B11F080E008952D
:1001E000109291001092920013C0893C22E3920772
:1001F00090F08BE080939300672B81F780918F00C4
:10020000811106C081E080938F008093910024C00B
:1002100010928F0021C0813127E29207F8F080917F
:100220008F008111DBCF809192008F30B8F69AE079
:1002300090939300672B91F68F5F8093920090E0EC
:10024000FC01EB56FF4F209190002083FC01E35806
:10025000FF4F20918D00208311DF3CC089352BE1B9
:10026000920788F080E180939300672B09F0B6CF66
:10027000809194008F5F843018F4809394002AC09A
:100280001092940027C0893B2BE0920750F08EE03B
:1002900080939300672B09F0A1CF83E080938E00B9
:1002A00019C0893E23E09207C8F080918F00811128
:1002B00095CF8DE080939300672B09F08FCF8091CD
:1002C0008D008F5F8C3008F081E080938D0081E09D
:1002D0008093900044DF1092930022C085369105F0
:1002E00008F47CCF672B09F079CF80918F008111C2
:1002F00009C0809190008F5F8A3008F081E0809380
:1003000090000CC0809191008F5F8093910090913C
:100310009200981718F481E080939100AFDE1FDF00
:1003200081E00895B49B03C010927B0003C081E07C
:1003300080937B0060917B00613049F4809179006B
:1003400090917A00019690937A0080937900809141
:100350007800681307C070E08091790090917A006E
:1003600034DF01C080E090917B00911108C02091A2
:100370007800211104C010927A00109279009093B5
:100380007800089590E0981710F422E201C020E26E
:10039000961708F42160941708F4246028BB9F5F27
:1003A0009A3589F780917C008F5F823018F0109227
:1003B0007C00B8CF80937C0080E008955F926F92BC
:1003C0007F928F929F92AF92BF92CF92DF92EF92E5
:1003D000FF920F931F93CF93DF93782E662E542EA8
:1003E00048015901C0E0D0E0BE0180E090E07CD738
:1003F0006B017C01E0919400F0E0EE0FFF1FEE0F27
:10040000FF1FE859FF4F2081318142815381C5018F
:10041000B401CBD79B01AC01C701B60161D787FFFF
:1004200008C0452D662D872DADDF813019F021964E
:10043000DBCF80E0DF91CF911F910F91FF90EF9084
:10044000DF90CF90BF90AF909F908F907F906F90F4
:100450005F9008954F925F926F927F928F929F92DA
:10046000AF92BF92CF92DF92EF92FF920F931F93C2
:10047000CF93DF93F82EB62EA42E922E802ED1E0AD
:100480002601612C712CE0919400F0E0EC59FF4FB3
:10049000C081CD17D0F0C301B20126D78B019C01DA
:1004A0004D2F4A214E298D2F8B21682F68298D2FA2
:1004B0008F21892983DF813011F481E024C080916C
:1004C00093008111FACFDF5FDECF2601612C712C02
:1004D000CC23C1F0C301B20107D78B019C014C2F83
:1004E0004A214E298C2F8B21682F68298C2F8F2130
:1004F000892964DF813009F3809193008111DDCF78
:10050000C150E6CF80E0DF91CF911F910F91FF9016
:10051000EF90DF90CF90BF90AF909F908F907F90A3
:100520006F905F904F900895CF92DF92EF920F936C
:10053000823061F0833091F08130C1F4E8ECCE2E4E
:10054000D12CE12C00E020E040E05AC078ECC72E2E
:10055000D12CE12C00E020E040E036C068ECC62E53
:10056000D12CE12C00E020E040E00DC0853069F0A6
:100570008630A9F08430D9F458ECC52ED12CE12C6A
:1005800000E020E04FEF6FEF08C048ECC42ED12C04
:10059000E12C00E020E04FEF60E080E033C038EC79
:1005A000C32ED12CE12C00E020E04FEF29C0883091
:1005B00069F08930C9F0873039F528ECC22ED12C8A
:1005C000E12C00E020E04FEF6FEF1BC0E0919400C2
:1005D000F0E0E05AFF4F98ECC92ED12CE12C00E05E
:1005E0002FEF40E060810DC0E0919400F0E0E05A10
:1005F000FF4F88ECC82ED12CE12C00E02FEF40817A
:1006000060E08FEF27DF01C080E00F91EF90DF9077
:10061000CF9008958F929F92AF92BF92DF92EF9208
:10062000FF920F931F93CF93DF93EC01E12CF12CFA
:100630004C01A12CB12CE0919400F0E0EC59FF4F5B
:10064000D0808D2D90E08E159F05A0F0C501B401DE
:100650004BD68B019C0140E06E2D8D2DAFDE81309D
:1006600009F4C2C0809193008111BEC08FEFE81AD7
:10067000F80AE1CFEE24E394F12C4E01A12CB12C29
:10068000E0919400F0E0EC59FF4FD0808D2D90E088
:100690008E159F05A8F0C501B40126D68B019C01DB
:1006A00040E06D2D8D2D8E1989DE813009F49CC0BE
:1006B00080919300811198C08FEFE81AF80AE0CF7B
:1006C000EE24E394F12C4E01A12CB12CE091940086
:1006D000F0E0EC59FF4FD0808D2D90E08E159F05F6
:1006E000A0F0C501B40100D68B019C014E2D6D2DEB
:1006F00080E064DE813009F477C08091930081113D
:1007000073C08FEFE81AF80AE1CFEE24E394F12CDE
:100710004E01A12CB12CE0919400F0E0EC59FF4F78
:10072000D0808D2D90E08E159F05A8F0C501B401F5
:10073000DBD58B019C016D2D6E194D2D80E03EDEC9
:10074000813009F451C08091930081114DC08FEF29
:10075000E81AF80AE0CFEE24E394F12C4E01A12C24
:10076000B12CE0919400F0E0EC59FF4FD0808D2D3A
:1007700090E08E159F0598F0C501B401B5D58B01A9
:100780009C014D2D60E08E2D19DE813069F1809144
:100790009300811129C08FEFE81AF80AE2CFEE2406
:1007A000E394F12C4E01A12CB12CE0919400F0E0E7
:1007B000EC59FF4FC0818C2F90E08E159F05A0F063
:1007C000C501B40191D58B019C014C2F4E1960E0FD
:1007D0008C2FF4DD813041F080919300811104C0B1
:1007E0008FEFE81AF80AE1CFDF91CF911F910F91B7
:1007F000FF90EF90DF90BF90AF909F908F90089503
:10080000BF92CF92DF92EF92FF920F931F93CF93FD
:10081000DF93D82EC62EB42EE12CD0E0F12CC0E010
:10082000E0919400F0E0EC59FF4F8081C81798F4F4
:1008300000E010E020EA30E44E2D6D2F8F2DBEDD5C
:10084000813061F0FD0CDC0DEB0C80919300811187
:1008500004C0CF5FE5CF80E001C081E0DF91CF91A0
:100860001F910F91FF90EF90DF90CF90BF90089570
:100870000F931F93CF93C0E0E0919400F0E0EC5908
:10088000FF4F8081C81788F4682F6C1B00E010E0D0
:1008900020E030E4462F92DD813009F48CC0809155
:1008A0009300811188C0CF5FE7CFC0E0E091940052
:1008B000F0E0EC59FF4F8081C81780F400E010E0B1
:1008C00020E030E440E06C2F79DD813009F473C022
:1008D0008091930081116FC0CF5FE8CFC0E0E091BD
:1008E0009400F0E0EC59FF4F8081C81788F400E0D5
:1008F00010E020E030E440E0682F8C1B5FDD8130A9
:1009000009F459C080919300811155C0CF5FE7CFA2
:10091000C0E0E0919400F0E0EC59FF4F6081C61711
:1009200080F400E010E020E030E44C2F80E046DD71
:10093000813009F440C08091930081113CC0CF5FA9
:10094000E8CFC0E0E0919400F0E0EC59FF4F408127
:10095000C41780F4642F6C1B00E010E020E030E44A
:1009600080E02CDD813039F180919300811123C02A
:10097000CF5FE8CFC0E0E0919400F0E0EC59FF4F8A
:100980004081C41780F44C1B00E010E020E030E40C
:1009900060E080E013DD813071F08091930081117F
:1009A0000AC0CF5FE8CF00E010E020E231E440E091
:1009B00060E080E003DDCF911F910F9108958330B7
:1009C000D1F038F4813051F0823059F540E061E0E7
:1009D00014C08430A1F08530B1F023C040E060C085
:1009E00040E060E081E00CDF813009F45CC0809180
:1009F0009300811158C041E060E080E001CF41E008
:100A000061E081E0FBCF40E060E081E0F9DE813031
:100A100009F449C080919300811145C040E061E034
:100A2000EDCF873049F018F48630D1F20895883040
:100A300039F08930B9F1089540E061E080E0D3CF2A
:100A400040E060E081E0DCDE813069F1809193007C
:100A5000811129C040E061E081E0D2DE813019F1EE
:100A60008091930081111FC040E061E0C9DE8130B8
:100A7000D1F080919300811116C041E061E0C0DEA9
:100A8000813089F08091930081110DC041E060E0D8
:100A9000B7DE813041F080919300811104C041E0C4
:100AA00060E0AFCFE5CE08950F931F93823071F0D1
:100AB0008330B1F08130F1F400E010E020E231E465
:100AC00040E060E080E07ADC40E038C000E010E028
:100AD00020E231E440E060E080E070DC40E040C0D3
:100AE00000E010E020E231E440E060E080E066DC1D
:100AF00040E041C0853071F08630B9F0843009F5AE
:100B000000E010E020E231E440E060E080E056DC0C
:100B100040E009C000E010E020E231E440E060E0A5
:100B200080E04CDC41E061E00AC000E010E020E23F
:100B300031E440E060E080E041DC41E060E080E002
:100B40001CC0883079F08930A9F08730C9F400E002
:100B500010E020E231E440E060E080E02FDC41E0A2
:100B600060E00AC000E010E020E231E440E060E034
:100B700080E024DC41E061E081E01F910F9102CC34
:100B800080E01F910F910895823061F08330B9F0B9
:100B90008130E9F4E0919400F0E0EC59FF4F40E03F
:100BA00060E04FC08091940090E0FC01E05AFF4F5C
:100BB000DC01AC59BF4F40E060818C9174C0E09182
:100BC0009400F0E0EC59FF4F808140E043C0853055
:100BD00061F08630B1F08430D9F4E0919400F0E017
:100BE000EC59FF4F40E060814CC08091940090E050
:100BF000FC01EC59FF4FDC01A05ABF4F40816C91C2
:100C000040C0E0919400F0E0EC59FF4F408138C0C3
:100C1000883061F08930B9F08730F1F4E0919400C8
:100C2000F0E0EC59FF4F8081482F3CC08091940048
:100C300090E0FC01E05AFF4F6081FC01EC59FF4F4E
:100C4000462F808130C0E0919400F0E0EC59FF4FD6
:100C50008081482F682F27C08C3079F030F48A309B
:100C600049F08B3081F440E017C08D3041F08E3078
:100C700081F009C040E063E004C043E00BC043E002
:100C800060E080E010C08F3021F0803141F443E01B
:100C900003C040E063E001C060E083E004C0811174
:100CA00003C040E060E06ECB80E008958F929F9299
:100CB000AF92BF92CF92DF92EF92FF921F93CF93AA
:100CC000DF934B015C01142FC0E0D0E0BE0180E057
:100CD00090E00AD36B017C01E0919400F0E0EE0F0C
:100CE000FF1FEE0FFF1FE859FF4F20813181428126
:100CF0005381C501B40159D39B01AC01C701B601B1
:100D0000EFD287FF06C0812F3FDF813019F0219697
:100D1000DDCF80E0DF91CF911F91FF90EF90DF90CA
:100D2000CF90BF90AF909F908F900895CF92DF9219
:100D3000EF92FF92CF93DF93C1E0D0E06C01E12C02
:100D4000F12CC701B601D0D2AE01B0DF813041F045
:100D500080919300811104C02196CA30D10589F792
:100D6000DF91CF91FF90EF90DF90CF900895CF93D8
:100D7000DF93833091F038F4813061F08230A9F450
:100D800082E390E00CC0843069F0853071F48CED22
:100D900095E005C08AE090E002C086E990E0DF912E
:100DA000CF9138CC84EF91E0FACF873069F028F406
:100DB000863011F584E690E00CC0883041F089302F
:100DC000D9F4C1E0D0E010C080E991E002C080EB2E
:100DD00094E0DF91CF91AACF8091930081110CC054
:100DE0002196C930D10541F0AE0160E070E084E3A6
:100DF00092E45CDF813081F7DF91CF9108958330F9
:100E000091F128F4813049F08230C1F05FC0843024
:100E1000D9F1853009F449C059C041E050E060E0A3
:100E200070E080E792E442DF813009F4E6C080910F
:100E300093008111E2C044E050E010C044E050E073
:100E400060E070E080E792E431DF813009F4D5C0E2
:100E5000809193008111D1C046E050E060E070E0E5
:100E600080E792E4C9C046E050E060E070E080E7CF
:100E700092E41CDF813009F4C0C08091930081119D
:100E8000BCC041E050E0EACF42E050E060E070E0FA
:100E900080E792E40BDF813009F4AFC080919300CA
:100EA0008111ABC045E050E0D9CF41E050E060E0B7
:100EB00070E080E792E4FADE813009F49EC0809110
:100EC000930081119AC042E050E0C8CF873051F1C1
:100ED00018F4863041F00895883009F450C0893004
:100EE00009F45DC0089540E050E060E070E084E304
:100EF00092E4DCDE813009F480C08091930081119E
:100F00007CC041E050E060E070E084E392E4CEDE3B
:100F1000813009F472C08091930081116EC044E069
:100F200050E01EC040E050E060E070E084E392E4F6
:100F3000BDDE813009F461C08091930081115DC0F4
:100F400041E050E060E070E084E392E4AFDE8130A5
:100F500009F453C08091930081114FC046E050E0E6
:100F600060E070E084E392E4A1DE813009F445C0E2
:100F700080919300811141C041E050E039C040E0D0
:100F800050E060E070E084E392E490DE8130A9F10B
:100F900080919300811131C049E050E00FC040E0E2
:100FA00050E060E070E084E392E480DE813029F17B
:100FB00080919300811121C044E050E060E070E036
:100FC00084E392E473DE8130C1F08091930081115B
:100FD00014C046E050E060E070E084E392E466DE36
:100FE000813059F080919300811107C044E050E0B6
:100FF00060E070E084E392E459CE08950F931F936C
:10100000CF93DF93EB01042F10E0BC0180E090E070
:101010006BD1A8014BDE813011F481E013C08091C7
:1010200093008111FACFBE0180E090E05DD140E0F5
:1010300050E03CDE813089F381E090919300911182
:1010400001C080E0DF91CF911F910F91089583300F
:10105000D9F030F4813049F0823009F440C04EC0FC
:10106000843009F1853071F149C041E06DE270E0F2
:101070008DE290E0C3DF813009F492C0809193004B
:1010800081118EC044E055C046E06DE270E08DE213
:1010900090E0B4DF813009F483C080919300811126
:1010A0007FC041E046C042E06DE270E08DE290E03A
:1010B000A5DF813009F474C080919300811170C064
:1010C00045E037C041E06DE270E08DE290E096DFF0
:1010D000813009F465C080919300811161C044E0C2
:1010E0006DE270E08DE290E089DF813009F458C054
:1010F00080919300811154C046E01BC0873061F09D
:1011000018F4863039F00895883009F447C08930E2
:10111000A9F0089541E001C044E06DE270E08DE285
:1011200090E06CDF8130E1F180919300811138C053
:1011300049E06DE270E08DE290E060CF41E06DE269
:1011400070E08DE290E05ADF813051F180919300A0
:10115000811126C049E06DE270E08DE290E04EDF43
:101160008130F1F08091930081111AC044E06DE26A
:1011700070E08DE290E042DF813091F08091930049
:1011800081110EC049E06DE270E08DE290E036DF43
:10119000813031F080919300811102C046E0BDCFD3
:1011A0000895982F862F9330B1F050F4913091F03C
:1011B0009230E9F4462F64E170E084E190E010C0E1
:1011C000943079F0953099F4462F64EF71E084EF14
:1011D00091E006C0D9CC462F62E370E082E390E054
:1011E0000DCF462F64E670E084E690E0F9CF9830AA
:1011F00071F028F4963049F0973041F008959A3014
:1012000041F030F09B3031F008958EC9B0CD1FCF42
:10121000F6CDD5CB49CC71D7D3D71BBE15BAF89430
:1012200010929300C0E280918E008230A1F4C8D762
:101230001BBE15BAF8948AE080938E0086B384FFB3
:10124000FDCF2FE788E391E0215080409040E1F707
:1012500000C00000E8CF8330A1F417BA90E198BB3A
:1012600085B7877E806185BF85B7806285BFCBBF2C
:1012700095BB789410928E00889585B78F7D85BF39
:10128000D2CF8091930081111AC080918F0081117B
:1012900005C06091900080918D000FC080919200F8
:1012A0008823D9F08091910090E0FC01EB56FF4F2C
:1012B000DC01A358BF4F60818C9173DFB4CF8A30BB
:1012C00069F08B3059F08C3049F08D3039F08E3028
:1012D00029F08F3019F0803109F080E055DCA3CF80
:1012E00040D008F481E00895E89409C097FB3EF4EB
:1012F00090958095709561957F4F8F4F9F4F992363
:10130000A9F0F92F96E9BB279395F69587957795E0
:101310006795B795F111F8CFFAF4BB0F11F460FFA0
:101320001BC06F5F7F4F8F4F9F4F16C0882311F0F8
:1013300096E911C0772321F09EE8872F762F05C00C
:10134000662371F096E8862F70E060E02AF09A95A7
:10135000660F771F881FDAF7880F9695879597F99C
:101360000895990F0008550FAA0BE0E8FEEF161636
:101370001706E807F907C0F012161306E407F50789
:1013800098F0621B730B840B950B39F40A2661F0FD
:10139000232B242B252B21F408950A2609F4A140A0
:1013A000A6958FEF811D811D08950AD080C071D050
:1013B00028F076D018F0952309F062C067C0ABC062
:1013C00087D0A8F39923D9F35523C9F3950F50E09B
:1013D000551FAA27EE27FF27BB27002408946795EF
:1013E00020F4E20FF31FB41F0A1E220F331F441F05
:1013F000AA1F6695A9F7779530F4F30FB41F0A1E5C
:10140000121E08F46395330F441FAA1F221F7695FE
:1014100099F7879520F4B40F0A1E121E631F440F1C
:10142000AA1F221F331F8695A9F7862F712D602DC5
:1014300011249F5750408AF0E1F088234AF0EE0FC4
:10144000FF1FBB1F661F771F881F91505040A9F7D1
:101450009E3F510570F014C05EC05F3FECF3983EB4
:10146000DCF3869577956795B795F795E7959F5F38
:10147000C1F7FE2B880F911D9695879597F90895D2
:1014800097F99F6780E870E060E008959FEF80EC37
:10149000089500240A9416161706180609060895DA
:1014A00000240A9412161306140605060895092E40
:1014B0000394000C11F4882352F0BB0F40F4BF2BAF
:1014C00011F460FF04C06F5F7F4F8F4F9F4F0895EF
:1014D00057FD9058440F551F59F05F3F71F04795E5
:1014E000880F97FB991F61F09F3F79F087950895CA
:1014F000121613061406551FF2CF4695F1DF08C0E9
:10150000161617061806991FF1CF86957105610505
:1015100008940895E894BB2766277727CB0197F9AD
:101520000895DC01CB01FC01E199FECF06C0FFBBB1
:10153000EEBBE09A31960DB20D9241505040B8F793
:101540000895E199FECF9FBB8EBBE09A99278DB39A
:101550000895DC01CB0102C02D9105D041505040CF
:10156000D8F70895262FE199FECF1CBA9FBB8EBBFA
:101570002DBB0FB6F894E29AE19A0FBE019608953A
:04158000F894FFCF0D
:101584001B0D04025A2D0F090000803F9A99993FC0
:08159400CDCCCC3F000000406B
:00000001FF
