:1000000009C016C016C014C013C012C011C010C061
:100010000FC00EC011241FBECFE9CDBF20E0A0E667
:10002000B0E001C01D92A736B207E1F7BED0CDC146
:10003000E7CF1F920F920FB60F9211248F938091EA
:100040006500811103C082E0809365008F910F905D
:100050000FBE0F901F901895813A2FE0920728F05D
:10006000672BB1F41092650011C0459788F0672B9B
:1000700079F4809166008F5F893008F081E0809389
:1000800066006091660080E090E092D181E0089582
:1000900080E00895B49B03C01092630003C081E028
:1000A0008093630060916300613049F48091610046
:1000B000909162000196909362008093610080911C
:1000C0006000681307C070E0809161009091620049
:1000D000C3DF01C080E090916300911108C02091BE
:1000E0006000211104C01092620010926100909390
:1000F0006000089590E0981710F422E201C020E219
:10010000961708F4216028BB9F5F9431A1F7C2CFF6
:100110000F931F93CF93DF93182F062FC4EFD1E0D7
:10012000602F812FE7DF813019F02197C9F780E038
:10013000DF91CF911F910F910895813039F058F0E0
:10014000823031F0833039F464E106C060E001C0F0
:1001500064E184E102C060E080E0CCCFCF92DF9226
:10016000EF92FF921F93CF93DF936B017C01142FCB
:10017000C0E0D0E0CE01A0E0B0E08C159D05AE055A
:10018000BF0550F4812FD9DF813039F080916400B0
:10019000813019F02196EECF80E0DF91CF911F9151
:1001A000FF90EF90DF90CF9008958AE080936500F4
:1001B0001BBE15BAF89480E090E0F3D080936600FF
:1001C000893018F081E08093660087E087BB87E183
:1001D00088BBD4E110E100E287E0F82E97E1E92E38
:1001E0002AE0D22E1092640080916500823011F5D1
:1001F000F7BAE8BA1BBE15BAF894D092650086B378
:100200009AE086B3E7E8F3E13197F1F700C0000028
:1002100084FF03C01092650006C0915091F784FDE1
:1002200002C086B3FCCF8BE792E90197F1F700C0DB
:100230000000D8CF811113C017BA18BB85B7877ECD
:10024000806185BF85B7806285BF0BBF15BB789481
:1002500010926500889585B78F7D85BFC3CF80914B
:100260006600823061F0833061F1813009F04BC06B
:1002700041E062E370E080E090E070DF44C0C1E004
:1002800064E18C2F45DF813021F080916400813062
:1002900029F481E080936400C3E10AC0CF5FC531D7
:1002A00079F7FACF80916400813039F0C15058F16C
:1002B00064E18C2F2DDF8130A9F781E08093640009
:1002C00022C0C0E06D2F6C1B8C2F22DF813021F00B
:1002D00080916400813029F481E080936400C1E062
:1002E0000BC0CF5FC53171F7FACF809164008130C8
:1002F00021F3CF5FC53139F06C2F8D2F8C1B08DFB8
:10030000813099F7DACF80916600853031F0863000
:1003100059F0843051F542E001C043E062E370E0FF
:1003200080E090E01BDF21C0C1E06C2F84E1F0DEB3
:10033000813021F080916400813029F481E0809344
:100340006400C3E10AC0CF5FC53179F7FACF80916D
:100350006400813039F0C15040F06C2F84E1D8DE68
:100360008130A9F781E08093640080916600873036
:1003700059F0883009F036CF42E064E670E080E062
:1003800090E0ECDE41E007C042E064E670E080E02F
:1003900090E0E4DE43E064EC79E080E090E0DEDED3
:1003A00021CFE199FECF8EBBE09A99278DB30895B6
:1003B000262FE199FECF1CBA8EBB2DBB0FB6F89449
:0E03C000E29AE19A0FBE01960895F894FFCFDD
:00000001FF
