:1000000009C016C015C014C013C012C011C010C062
:100010000FC00EC011241FBECFE9CDBF20E0A0E667
:10002000B0E001C01D92A636B207E1F7A4D0EAC144
:10003000E7CF459788F0672B79F4809165008F5F53
:100040008C3008F081E0809365006091650080E06D
:1000500090E0CBD181E0089580E00895B49B03C087
:100060001092630003C081E080936300609163009D
:10007000613049F480916100909162000196909303
:1000800062008093610080916000681307C070E097
:100090008091610090916200CCDF01C080E090917E
:1000A0006300911108C020916000211104C01092DA
:1000B0006200109261009093600080936400089544
:1000C00090E0981710F422E201C020E2961708F49D
:1000D000216028BB9F5F9431A1F7C0CF0F931F937E
:1000E000CF93DF93182F062FC4EFD1E0602F812F1D
:1000F000E7DF813019F02197C9F780E0DF91CF91D8
:100100001F910F910895813039F058F0823031F00D
:10011000833039F464E106C060E001C064E184E149
:1001200002C060E080E0CCCFCF92DF92EF92FF92EE
:100130001F93CF93DF936B017C01142FC0E0D0E0BD
:10014000CE01A0E0B0E08C159D05AE05BF0550F4D2
:10015000812FD9DF813039F080916400813019F02E
:100160002196EECF80E0DF91CF911F91FF90EF902D
:10017000DF90CF90089580E090E030D180936500CB
:100180008C3018F081E08093650087E087BB87E1C1
:1001900088BB14E1C1E01092640080916500823058
:1001A00061F0833051F1813009F048C041E062E3F1
:1001B00070E080E090E0B8DF41C0D1E064E18D2FD5
:1001C0008DDF813021F080916400813021F4C09373
:1001D0006400D3E10AC0DF5FD53181F7FACF8091A7
:1001E0006400813039F0D15048F164E18D2F76DF21
:1001F0008130A9F7C093640021C0D0E0612F6D1B4E
:100200008D2F6CDF813021F080916400813021F4EA
:10021000C0936400D1E00BC0DF5FD53179F7FACF2E
:1002200080916400813031F3DF5FD53139F06D2F7B
:10023000812F8D1B53DF813099F7DCCF80916500D2
:10024000853031F0863059F0843041F542E001C00C
:1002500043E062E370E080E090E066DF1FC0D1E041
:100260006D2F84E13BDF813021F08091640081308B
:1002700021F4C0936400D3E10AC0DF5FD53181F778
:10028000FACF80916400813039F0D15038F06D2F71
:1002900084E124DF8130A9F7C09364008091650078
:1002A000883061F08930B1F0873031F542E064E6A2
:1002B00070E080E090E038DF43E007C042E064E6B1
:1002C00070E080E090E030DF41E064EC79E080E0D5
:1002D00090E011C042E06CE87CE380E090E024DF35
:1002E00043E06CE87CE380E090E01EDF41E06CE8F6
:1002F0007CE380E090E018DF809165008A3029F08F
:100300008B3009F048CFD1E052C042E06CE775E194
:1003100080E090E009DFD3E164E18D2FDFDE813002
:1003200021F080916400813021F4C0936400D1E019
:100330000AC0D15088F7FBCF80916400813041F032
:10034000DF5FD53139F064E18D2FC8DE8130A1F750
:10035000C093640042E06CE775E180E090E0E4DE89
:10036000D3E16D2F84E1BADE813021F08091640009
:10037000813021F4C0936400D1E00CC0D15088F7E3
:10038000FBCF80916400813009F405CFDF5FD53168
:1003900009F401CF6D2F84E1A1DE813091F7FBCE0E
:1003A00080916400813041F0DF5FD53139F06D2FED
:1003B0008D2F94DE8130A1F7C0936400D3E108C093
:1003C00080916400813009F4E6CED15008F4E3CE88
:1003D0006D2F8D2F83DE813099F7DDCEE199FECF31
:1003E0008EBBE09A99278DB30895262FE199FECF11
:1003F0001CBA8EBB2DBB0FB6F894E29AE19A0FBEE1
:0804000001960895F894FFCF66
:00000001FF
