:100000000EC01DC01CC01BC01AC019C018C017C02C
:1000100016C015C014C013C012C011C010C01124E6
:100020001FBECFE5D2E0DEBFCDBF20E0A0E6B0E04E
:1000300001C01D92AA38B207E1F77DD6E5C6E0CF30
:10004000809176008A3018F083E08093760080916A
:1000500074008C3018F087E080937400EAE7F0E0D9
:10006000A4E6B0E081E090819A3008F080839C9112
:100070009C3008F08C933196119690E0E938F9079E
:1000800091F780917800803110F010927800809183
:10009000780090917700981710F080937700809106
:1000A0007500823010F010927500089584E290E09F
:1000B0008CD68093760083E290E087D6809374009C
:1000C0004FE050E063E170E08AE790E06ED64FE0E9
:1000D00050E063E070E084E690E067D681E090E075
:1000E00074D68093770082E090E06FD6809378009A
:1000F00080E090E06AD680937500A2CF6091760090
:1001000084E290E073D66091740083E290E06ED652
:100110004FE050E063E170E08AE790E05ED64FE0A8
:1001200050E063E070E084E690E057D6609177009D
:1001300081E090E05BD66091780082E090E056D656
:100140006091750080E090E051C6813526E4920709
:1001500060F08CE080937900672B11F080E00895C7
:10016000109277001092780013C0813127E2920735
:1001700090F08BE080937900672B81F78091750078
:10018000811106C081E0809375008093770024C0C0
:100190001092750021C0813A2FE09207F8F080910B
:1001A00075008111DBCF809178008F30B8F69AE02E
:1001B00090937900672B91F68F5F8093780090E0A1
:1001C000FC01E658FF4F209176002083FC01EC599A
:1001D000FF4F20917400208333DF19C0893E23E054
:1001E0009207C8F0809175008111B8CF8DE080939F
:1001F0007900672B09F0B2CF809174008F5F8C304B
:1002000008F081E08093740081E08093760076DFCF
:100210001092790021C0C39708F4A0CF672B09F092
:100220009DCF80917500811109C0809176008F5F0C
:100230008A3008F081E0809376000CC080917700CE
:100240008F5F8093770090917800981718F481E081
:1002500080937700F5DE52DF81E00895B49B03C000
:100260001092630003C081E080936300609163009B
:10027000613049F480916100909162000196909301
:1002800062008093610080916000681307C070E095
:10029000809161009091620058DF01C080E09091F0
:1002A0006300911108C020916000211104C01092D8
:1002B00062001092610090936000089590E098179A
:1002C00010F422E201C020E2961708F4216094178E
:1002D00008F4246028BB9F5F943189F7BFCFDF9279
:1002E000EF92FF920F931F93CF93DF93F82EE62E9A
:1002F000D42E8901C0E0D0E0C017D10741F04D2DC8
:100300006E2D8F2DDBDF813019F02196F5CF80E047
:10031000DF91CF911F910F91FF90EF90DF900895A3
:10032000BF92CF92DF92EF92FF920F931F93CF93E2
:10033000DF93D82F162FF42EB22EC1E04F2D4C2371
:100340004E29612F6C23602B96018D2F8C238B29D6
:10035000C6DF813011F481E01BC0809179008111EA
:10036000FACFCF5FC53151F7C4E14F2D4C234E2951
:10037000612F6C23602B96018D2F8C238B29AFDF8F
:10038000813049F3809179008111E5CFC15069F73F
:10039000DF91CF911F910F91FF90EF90DF90CF9061
:1003A000BF900895CF92DF92EF920F93823061F069
:1003B000833091F08130C1F4E8ECCE2ED12CE12CC9
:1003C00000E020E040E050C078ECC72ED12CE12CBA
:1003D00000E020E040E036C068ECC62ED12CE12CD5
:1003E00000E020E040E00DC0853069F08630A9F0E3
:1003F0008430D9F458ECC52ED12CE12C00E020E05B
:100400004FEF6FEF08C048ECC42ED12CE12C00E078
:1004100020E04FEF60E080E029C038ECC32ED12C03
:10042000E12C00E020E04FEF1FC0883069F08930F8
:10043000A1F08730E9F428ECC22ED12CE12C00E0A9
:1004400020E04FEF6FEF11C098ECC92ED12CE12CBA
:1004500000E02FEF40E067E008C088ECC82ED12C08
:10046000E12C00E029E147E060E08FEF59DF01C0B7
:1004700080E00F91EF90DF90CF9008951F93CF937E
:10048000DF93EC0110E09E0140E0612F84E127DF63
:10049000813009F450C08091790081114CC01F5FF8
:1004A000153189F713E19E0140E064E1812F17DFE8
:1004B000813009F440C08091790081113CC0115015
:1004C00090F711E09E01412F64E180E008DF813068
:1004D00091F18091790081112EC01F5F153191F744
:1004E00013E19E0144E1612F80E0F9DE813019F1D2
:1004F0008091790081111FC0115098F711E09E0181
:1005000044E160E0812FEBDE8130A9F08091790039
:10051000811111C01F5F153191F713E19E01412F29
:1005200060E084E1DCDE813031F08091790081117E
:1005300002C0115098F7DF91CF911F910895DF927B
:10054000EF92FF920F931F93CF93DF93D82EE62E57
:10055000F42ED0E010E000E0C4E125E030E04D2FC3
:10056000612F802FBCDE813061F080917900811194
:1005700007C0C1500D0D1E0DDF0DC111EECF01C022
:1005800081E0DF91CF911F910F91FF90EF90DF906D
:100590000895CF93C4E122E030E04C2F6C2F84E12A
:1005A0009EDE813009F456C080917900811152C0DD
:1005B000C15089F722E030E040E06C2F84E18FDE0B
:1005C000813009F447C080917900811143C0CF5F29
:1005D000C43181F722E030E040E064E18C2F7FDE1F
:1005E0008130C1F180917900811134C0C15091F7FF
:1005F00022E030E04C2F64E180E071DE813051F187
:1006000080917900811126C0CF5FC43189F722E043
:1006100030E044E16C2F80E062DE8130D9F08091DF
:100620007900811117C0C15091F7C4E122E030E098
:100630004C2F60E080E053DE813061F080917900E2
:10064000811108C0C15091F72AE030E040E060E03D
:10065000CF9145CECF9108958330D1F038F48130D9
:1006600051F0823059F540E061E014C08430A1F0CF
:100670008530B1F023C040E060C040E060E081E040
:100680005EDF813009F45CC080917900811158C02F
:1006900041E060E080E053CF41E061E081E0FBCFEA
:1006A00040E060E081E04BDF813009F449C0809197
:1006B0007900811145C040E061E0EDCF873049F01D
:1006C00018F48630D1F20895883039F08930B9F1C4
:1006D000089540E061E080E0D3CF40E060E081E059
:1006E0002EDF813069F180917900811129C040E0CD
:1006F00061E081E024DF813019F18091790081117E
:100700001FC040E061E01BDF8130D1F080917900B3
:10071000811116C041E061E012DF813089F08091E3
:10072000790081110DC041E060E009DF813041F0C6
:1007300080917900811104C041E060E0AFCF29CF02
:100740000895823061F0833091F08130C1F42AE065
:1007500030E040E060E080E0C2DD40E02EC02AE012
:1007600030E040E060E080E0BADD40E036C02AE002
:1007700030E040E060E080E0B2DD40E037C085304E
:1007800061F0863099F08430D9F42AE030E040E01E
:1007900060E080E0A4DD40E007C02AE030E040E017
:1007A00060E080E09CDD41E061E008C02AE030E0EC
:1007B00040E060E080E093DD41E060E080E018C070
:1007C000883069F0893089F0873099F42AE030E088
:1007D00040E060E080E083DD41E060E008C02AE0C6
:1007E00030E040E060E080E07ADD41E061E081E01F
:1007F00065CD80E00895823031F0833041F0813062
:1008000041F440E01BC040E065E084E13AC040E0D4
:100810001AC0853039F0863041F0843041F440E030
:1008200064E129C044E165E026C044E123C088308A
:1008300039F0893039F0873041F444E160E0E5CFA8
:1008400045E0E2CF44E164E1E0CF8B3061F028F491
:100850008A3099F440E063E00EC08C3039F08D307E
:1008600061F443E007C040E060E002C043E063E0C1
:1008700083E007C060E080E004C0811103C040E075
:1008800060E01CCD80E00895FF920F931F93CF93FB
:10089000DF938C01F62EC0E0D0E0C017D10731F015
:1008A0008F2DA9DF813019F02196F7CF80E0DF91FD
:1008B000CF911F910F91FF9008950F931F93CF93A6
:1008C000DF938C01C1E0D0E0BE01C801DDDF8130E3
:1008D00041F080917900811104C02196CA30D10580
:1008E00099F7DF91CF911F910F910895CF93DF93E7
:1008F000833091F038F4813061F08230A9F482E3E2
:1009000090E00CC0843069F0853071F48CED95E096
:1009100005C08AE090E002C086E990E0DF91CF91C7
:10092000ADCD84EF91E0FACF873069F028F48630BE
:1009300001F584E690E00CC0883041F08930C9F4BC
:10094000C1E0D0E010C080E991E002C080EB94E00B
:10095000DF91CF91B2CF8091790081110AC02196A9
:10096000C930D10531F0BE018DE290E08DDF8130DC
:1009700091F7DF91CF910895833061F128F48130B0
:1009800049F08230B1F053C0843099F1853009F4D8
:100990003FC04DC061E070E08CE390E075DF8130D6
:1009A00009F4C7C0809179008111C3C064E070E090
:1009B0000EC064E070E08CE390E066DF813009F403
:1009C000B8C0809179008111B4C066E070E08CE31A
:1009D00090E0AEC066E070E08CE390E055DF8130DF
:1009E00009F4A7C0809179008111A3C061E070E093
:1009F000EECF62E070E08CE390E046DF813009F4F6
:100A000098C080917900811194C065E070E0DFCFDB
:100A100061E070E08CE390E037DF813009F489C059
:100A200080917900811185C062E070E0D0CF87307D
:100A300031F118F4863041F00895883009F445C04A
:100A4000893009F450C0089560E070E08DE290E0D4
:100A50001BDF813009F46DC080917900811169C07C
:100A600061E070E08DE290E00FDF813009F461C059
:100A70008091790081115DC064E070E01AC060E08F
:100A800070E08DE290E000DF813009F452C0809187
:100A9000790081114EC061E070E08DE290E0F4DEFB
:100AA000813009F446C080917900811142C066E02E
:100AB00070E08DE290E0E8DE8130D9F1809179003C
:100AC000811137C061E070E031C060E070E08DE21C
:100AD00090E0DADE813069F180917900811129C0DE
:100AE00069E070E00DC060E070E08DE290E0CCDE87
:100AF0008130F9F08091790081111BC064E070E0D1
:100B00008DE290E0C1DE8130A1F080917900811109
:100B100010C066E070E08DE290E0B6DE813049F012
:100B200080917900811105C064E070E08DE290E071
:100B3000ABCE0895CF93DF93EB01642F70E0A4DE7A
:100B4000813011F481E010C0809179008111FACFD9
:100B500060E070E0CE0198DE8130A1F381E09091F9
:100B60007900911101C080E0DF91CF910895833029
:100B7000D9F030F4813049F0823009F440C04EC0E1
:100B8000843009F1853071F149C041E06DE270E0D7
:100B90008DE290E0CFDF813009F492C0809179003E
:100BA00081118EC044E055C046E06DE270E08DE2F8
:100BB00090E0C0DF813009F483C080917900811119
:100BC0007FC041E046C042E06DE270E08DE290E01F
:100BD000B1DF813009F474C080917900811170C057
:100BE00045E037C041E06DE270E08DE290E0A2DFC9
:100BF000813009F465C080917900811161C044E0C1
:100C00006DE270E08DE290E095DF813009F458C02C
:100C100080917900811154C046E01BC0873061F09B
:100C200018F4863039F00895883009F447C08930C7
:100C3000A9F0089541E001C044E06DE270E08DE26A
:100C400090E078DF8130E1F180917900811138C046
:100C500049E06DE270E08DE290E06CCF41E06DE242
:100C600070E08DE290E066DF813051F18091790093
:100C7000811126C049E06DE270E08DE290E05ADF1C
:100C80008130F1F08091790081111AC044E06DE269
:100C900070E08DE290E04EDF813091F0809179003C
:100CA00081110EC049E06DE270E08DE290E042DF1C
:100CB000813031F080917900811102C046E0BDCFD2
:100CC0000895982F862F9330B1F050F4913091F021
:100CD0009230E9F4462F64E170E084E190E010C0C6
:100CE000943079F0953099F4462F64EF71E084EFF9
:100CF00091E006C080CD462F62E370E082E390E091
:100D000019CF462F64E670E084E690E0F9CF983082
:100D100071F028F4963049F0973041F008959A30F8
:100D200041F030F09B3031F008953CCBDFCD1FCF48
:100D300023CE92CC06CDBAD987E087BB87E188BBAA
:100D4000109279008091790081111CC0809175000A
:100D5000811105C060917600809174000FC0809170
:100D60007800882369F08091770090E0FC01E658D4
:100D7000FF4FDC01AC59BF4F60818C91A2DFE2CF05
:100D800080E008C08A3031F08B3021F08C3011F0D7
:100D90008D3011F430DDD6CF8E3091F741E064E62E
:100DA00070E082E390E0C6DECDCFDC01CB01FC0138
:100DB000E199FECF06C0FFBBEEBBE09A31960DB2C3
:100DC0000D9241505040B8F70895E199FECF9FBB76
:100DD0008EBBE09A99278DB30895DC01CB0102C048
:100DE0002D9105D041505040D8F70895262FE19914
:100DF000FECF1CBA9FBB8EBB2DBB0FB6F894E29AF8
:0C0E0000E19A0FBE01960895F894FFCF10
:00000001FF
