:1000000009C016C015C014C013C012C011C010C062
:100010000FC00EC011241FBECFE9CDBF20E0A0E667
:10002000B0E001C01D92A636B207E1F7E1D0C8C129
:10003000E7CF8D3B22E09207B8F0672B41F5809126
:100040006400813011F482E001C081E0809364009B
:1000500081E08093650061E081E090E0A4D160914F
:10006000640080E090E010C0459788F0672B79F439
:10007000809165008F5F8A3008F081E08093650091
:100080006091650081E090E08ED181E0089580E08C
:100090000895B49B03C01092630003C081E0809375
:1000A000630060916300613049F480916100909138
:1000B00062000196909362008093610080916000DD
:1000C000681307C070E08091610090916200B1DF19
:1000D00001C080E090916300911108C02091600000
:1000E000211104C010926200109261009093600090
:1000F000089590E0981710F422E201C020E29617CC
:1001000008F42160941708F4246028BB9F5F9431A1
:1001100089F7BFCF0F931F93CF93DF93D82F162F5D
:10012000042FC6E9402F612F8D2FE3DF813019F0B6
:10013000C150C1F780E0DF91CF911F910F910895D9
:10014000823031F0833041F0813041F440E01DC015
:1001500040E065E084E124C040E01CC0853039F017
:10016000863041F0843051F440E064E105C044E160
:1001700065E002C044E160E080E012C0883039F000
:10018000893039F0873041F444E160E0E3CF45E065
:10019000E0CF44E164E1DECF811103C040E060E0E4
:1001A000A8CF80E00895FF920F931F93CF93DF9322
:1001B000F62E00E010E0C82FD0E00C171D0738F431
:1001C0008F2DBEDF813021F00F5F1F4FF6CF80E013
:1001D000DF91CF911F910F91FF900895CF93C62F7C
:1001E000642FE1DF60E08C2FDEDF80E0CF910895A7
:1001F00081E090E0D1D0C82F8093650080E090E04E
:10020000CBD080936400CA3018F091E090936500E1
:10021000833018F081E08093640087E087BB87E13A
:1002200088BB80916400813021F48091650088DF73
:10023000F8CF8230B1F780916500813021F08230B3
:1002400089F4C1E008C0C1E06C2F80EFACDFCF5F64
:10025000C830D1F707C04C2F6CE38CE3BFDFCF5F12
:10026000C830C9F780916500833089F080916500BE
:10027000853009F461C0863009F464C0843009F027
:1002800069C046E06CE38CE3A9DF43E060C0C0E0F6
:1002900040E06C2F84E13EDF813029F0CF5FC53133
:1002A000B9F7C0E001C0C1E0D3E140E064E18D2FC7
:1002B00031DF813031F0C13029F0D150B0F7C0E0EA
:1002C00001C0C1E0D1E04D2F64E180E023DF813047
:1002D00039F0C13031F0DF5FD531A9F7C0E001C09E
:1002E000C1E0D3E144E16D2F80E014DF813031F0D3
:1002F000C13029F0D150B0F7C0E001C0C1E0D1E079
:1003000044E160E08D2F06DF813039F0C13031F0FB
:10031000DF5FD531A9F7C0E001C0C1E0D3E14D2FC7
:1003200060E084E1F7DE813009F4A0CFC13009F448
:100330009DCFD150A0F79ACF41E06CE38CE34EDF24
:1003400044E005C042E06CE38CE348DF47E06CE347
:100350008CE344DF80916500883039F0893059F0B2
:10036000873009F05ECF49E013C049E06EE18EE1CD
:1003700035DF41E005C049E06EE18EE12FDF44E06A
:100380006EE18EE12BDF49E06EE18EE127DF46E092
:100390006EE18EE123DF45CFE199FECF8EBBE09A7F
:1003A00099278DB30895262FE199FECF1CBA8EBBF5
:1003B0002DBB0FB6F894E29AE19A0FBE019608950C
:0403C000F894FFCFDF
:00000001FF
