:100000000EC01DC01CC01BC01AC019C018C017C02C
:1000100016C015C014C013C012C011C010C01124E6
:100020001FBECFE5D1E0DEBFCDBF20E0A0E6B0E04F
:1000300001C01D92A636B207E1F7E1D001C2E0CFC0
:100040008D3B22E09207B8F0672B41F58091640068
:10005000813011F482E001C081E08093640081E08E
:100060008093650061E081E090E0DCD16091640004
:1000700080E090E010C00F9788F0672B79F48091B2
:1000800065008F5F8A3008F081E0809365006091A1
:10009000650081E090E0C6D181E0089580E0089598
:1000A000B49B03C01092630003C081E0809363009F
:1000B00060916300613049F4809161009091620029
:1000C0000196909362008093610080916000861396
:1000D00007C070E08091610090916200B1DF01C0C3
:1000E00080E090916300911108C02091600021117F
:1000F00004C0109262001092610090936000089515
:1001000090E0981710F422E201C020E2961708F45C
:100110002160941708F4246028BB9F5F943189F70D
:10012000BFDF08950F931F93CF93DF93D82F162F20
:10013000042FC6E9402F612F8D2FE2DF813019F0A7
:10014000C150C1F780E0DF91CF911F910F910895C9
:10015000823031F0833031F0813031F440E01BC027
:1001600040E01CC040E01DC0853039F0863041F0D1
:10017000843051F440E064E105C044E165E002C030
:1001800044E160E080E014C0883039F0893041F00B
:10019000873051F444E160E005C045E065E002C00D
:1001A00044E164E184E104C0811104C040E060E006
:1001B000A7DF089580E00895A1E0B0E0E1EEF0E06F
:1001C000FEC000E010E0E82EF12C0E151F0548F4EB
:1001D000862F6983BDDF6981813021F00F5F1F4F5A
:1001E000F4CF80E02196E6E006C1CF93C62F642FBE
:1001F000E3DF60E08C2FE0DF80E0CF91089581E0C5
:1002000090E008D1C82F8093650080E090E002D193
:1002100080936400CA3018F091E0909365008330B9
:1002200018F081E08093640087E087BB87E188BB9A
:1002300080916400813021F48091650089DFF8CFDE
:100240008230B1F780916500813021F0823089F4ED
:10025000C1E008C0C1E06C2F80EFAEDFCF5FC830D7
:10026000D1F707C04C2F6CE38CE3BFDFCF5FC83002
:10027000C9F780916500833089F0809165008530F1
:1002800009F461C0863009F464C0843009F069C0A3
:1002900046E06CE38CE3A9DF43E060C0C0E040E0EF
:1002A0006C2F84E13FDF813029F0CF5FC531B9F792
:1002B000C0E001C0C1E0D3E140E064E18D2F32DF56
:1002C000813031F0C13029F0D150B0F7C0E001C029
:1002D000C1E0D1E04D2F64E180E024DF813039F0CE
:1002E000C13031F0DF5FD531A9F7C0E001C0C1E016
:1002F000D3E144E16D2F80E015DF813031F0C13072
:1003000029F0D150B0F7C0E001C0C1E0D1E044E134
:1003100060E08D2F07DF813039F0C13031F0DF5FD1
:10032000D531A9F7C0E001C0C1E0D3E14D2F60E0B5
:1003300084E1F8DE813009F4A0CFC13009F49DCF0B
:10034000D150A0F79ACF41E06CE38CE34EDF44E05C
:1003500005C042E06CE38CE348DF47E06CE38CE3EC
:1003600044DF80916500883039F0893059F087305A
:1003700009F05ECF49E013C049E06EE18EE135DF60
:1003800041E005C049E06EE18EE12FDF44E06EE11F
:100390008EE12BDF49E06EE18EE127DF46E06EE182
:1003A0008EE123DF45CF2F923F924F925F926F9263
:1003B0007F928F929F92AF92BF92CF92DF92EF92F5
:1003C000FF920F931F93CF93DF93CDB7DEB7CA1B76
:1003D000DB0B0FB6F894DEBF0FBECDBF09942A88A1
:1003E000398848885F846E847D848C849B84AA8449
:1003F000B984C884DF80EE80FD800C811B81AA81D6
:10040000B981CE0FD11D0FB6F894DEBF0FBECDBFA0
:10041000ED010895E199FECF1FBA8EBBE09A9927AE
:100420008DB30895262FE199FECF1CBA1FBA8EBB5B
:100430002DBB0FB6F894E29AE19A0FBE019608958B
:04044000F894FFCF5E
:00000001FF
