:100000000EC01DC0C7C01BC01AC019C018C017C081
:1000100016C015C014C013C012C011C010C01124E6
:100020001FBECFE5D1E0DEBFCDBF20E0A0E6B0E04F
:1000300001C01D92AB38B207E1F7DFD67EC7E0CF33
:1000400085B7877E806185BF85B7806285BF7894DC
:10005000889585B78F7D85BF0895809177008A3018
:1000600018F083E080937700809174008C3018F052
:1000700087E080937400A4E6B0E0EBE7F0E081E075
:100080009FE09E0F20812A3008F080832C912C3035
:1000900008F08C93319611969E13F4CF80917900DD
:1000A000803110F010927900809179009091780061
:1000B000981710F08093780080917600823010F0CD
:1000C0001092760080917500823018F081E0809364
:1000D0007500089585E290E012D78093770084E25E
:1000E00090E00DD7809374004FE050E064E170E041
:1000F0008BE790E0F5D64FE050E064E070E084E6F6
:1001000090E0EED682E090E0FAD68093780083E02B
:1001100090E0F5D68093790081E090E0F0D680936E
:10012000760080E090E0EBD68093750096DF08952E
:100130006091770085E290E0F2D66091740084E2ED
:1001400090E0EDD64FE050E064E170E08BE790E0A6
:10015000DED64FE050E064E070E084E690E0D7D671
:100160006091780082E090E0DAD66091790083E0D7
:1001700090E0D5D66091760081E090E0D0D6609195
:10018000750080E090E0CBD6089587E087BB87E1DB
:1001900088BB08951F920F920FB60F9211242F93D0
:1001A0003F934F935F936F937F938F939F93AF93FF
:1001B000BF93EF93FF93F89481E0809375004DDF38
:1001C000E4DF86B322EE34E084FD05C086B3F90196
:1001D0003197F1F7F9CF82EE94E00197F1F7FF91B3
:1001E000EF91BF91AF919F918F917F916F915F91AF
:1001F0004F913F912F910F900FBE0F901F90189528
:10020000813526E4920760F08CE080937A00672BBA
:1002100011F080E00895109278001092790013C0D8
:10022000813127E2920790F08BE080937A00672B70
:1002300081F780917600811106C081E0809376007D
:100240008093780030C0109276002DC089352BE164
:10025000920740F08EE080937A00672BD1F61092DF
:1002600075003CC0813A2FE09207F8F0809176004B
:100270008111CFCF809179008F3058F69AE090931A
:100280007A00672B31F68F5F8093790090E0FC0154
:10029000E558FF4F209177002083FC01EC59FF4F78
:1002A000209174002083D9DE19C0893E23E0920793
:1002B000C8F0809176008111ACCF8DE080937A00F8
:1002C000672B09F0A6CF809174008F5F8C3008F007
:1002D00081E08093740081E08093770029DF1092A1
:1002E0007A0021C0C39708F494CF672B09F091CF0F
:1002F00080917600811109C0809177008F5F8A30EC
:1003000008F081E0809377000CC0809178008F5FC7
:100310008093780090917900981718F481E0809389
:1003200078009BDE05DF81E00895B49B03C0109246
:10033000630003C081E080936300609163006130DB
:1003400049F480916100909162000196909362005F
:100350008093610080916000861307C070E08091F7
:100360006100909162004CDF01C080E090916300D9
:10037000911108C020916000211104C01092620008
:100380001092610090936000089590E0981710F427
:1003900022E201C020E2961708F42160941708F4C5
:1003A000246028BB9F5F943189F7BFDF0895A0E0E8
:1003B000B0E0ECEDF1E068C5F82EE62ED42E890110
:1003C000C0E0D0E0C017D10741F04D2D6E2D8F2D2C
:1003D000DCDF813019F02196F5CF80E0CDB7DEB7B4
:1003E000E7E06EC5A0E0B0E0E7EFF1E04BC5D82F45
:1003F000162FF42EB22EC1E04C2F4F214E296C2F18
:100400006123602B96018C2F8D238B29D0DF8130C7
:1004100011F481E01DC080917A008111FACFCF5F85
:10042000C53151F7C4E19C2F9F21492F4E299C2FA4
:100430009123692F602B96018C2F8D238B29B7DF99
:10044000813039F380917A008111E3CFC15059F79F
:10045000CDB7DEB7E9E032C5CF92DF92EF920F93CE
:10046000823061F0833091F08130C1F4E8ECCE2E1F
:10047000D12CE12C00E020E040E050C078ECC72E09
:10048000D12CE12C00E020E040E036C068ECC62E24
:10049000D12CE12C00E020E040E00DC0853069F077
:1004A0008630A9F08430D9F458ECC52ED12CE12C3B
:1004B00000E020E04FEF6FEF08C048ECC42ED12CD5
:1004C000E12C00E020E04FEF60E080E029C038EC54
:1004D000C32ED12CE12C00E020E04FEF1FC088306C
:1004E00069F08930A1F08730E9F428ECC22ED12CD4
:1004F000E12C00E020E04FEF6FEF11C098ECC92E27
:10050000D12CE12C00E02FEF40E067E008C088EC40
:10051000C82ED12CE12C00E029E147E060E08FEF0C
:1005200061DF01C080E00F91EF90DF90CF900895E0
:100530001F93CF93DF93EC0110E09E0140E0612F09
:1005400084E135DF813009F450C080917A00811157
:100550004CC01F5F153189F713E19E0140E064E153
:10056000812F25DF813009F440C080917A0081110C
:100570003CC0115090F711E09E01412F64E180E0F2
:1005800016DF813091F180917A0081112EC01F5FBA
:10059000153191F713E19E0144E1612F80E007DFFF
:1005A000813019F180917A0081111FC0115098F7A4
:1005B00011E09E0144E160E0812FF9DE8130A9F075
:1005C00080917A00811111C01F5F153191F713E1FD
:1005D0009E01412F60E084E1EADE813031F08091BC
:1005E0007A00811102C0115098F7DF91CF911F91CD
:1005F0000895A0E0B0E0EEEFF2E046C4D82EE62E7B
:10060000F42ED0E010E000E0C4E125E030E04D2F12
:10061000612F802FCCDE813061F080917A008111D2
:1006200007C0C1500D0D1E0DDF0DC111EECF01C071
:1006300081E0CDB7DEB7E7E043C4CF93C4E122E069
:1006400030E04C2F6C2F84E1B2DE813009F455C0CC
:1006500080917A00811151C0C15089F722E030E0C9
:1006600040E06C2F84E1A3DE813009F446C0809124
:100670007A00811142C0CF5FC43181F722E030E0BF
:1006800040E064E18C2F93DE8130B9F180917A00F3
:10069000811133C0C15091F722E030E04C2F64E16A
:1006A00080E085DE813049F180917A00811125C09A
:1006B000CF5FC43189F722E030E044E16C2F80E065
:1006C00076DE8130D1F080917A00811116C0C15060
:1006D00091F7C4E122E030E04C2F60E080E067DE7B
:1006E000813059F080917A00811107C0C15091F793
:1006F0002AE030E040E060E05ADECF910895833098
:10070000D1F138F4813051F08230D9F440E061E029
:1007100034C0843029F0853031F013C040E05FC030
:1007200041E061E05DC040E060E081E062DF813097
:1007300009F45AC080917A00811156C040E061E00E
:1007400050C0873071F018F4863039F00895883041
:10075000B1F0893009F447C0089540E060E081E0DD
:1007600003C040E061E080E044DF8130E9F1809146
:100770007A00811139C041E060E080E032C040E0A1
:1007800060E081E036DF813079F180917A0081117B
:100790002BC040E061E081E02CDF813029F18091C5
:1007A0007A00811121C040E061E023DF8130E1F077
:1007B00080917A00811118C041E061E01ADF813038
:1007C00099F080917A0081110FC041E060E011DF63
:1007D000813051F080917A00811106C041E060E0E3
:1007E00081E007DF089529DF0895823061F08330CA
:1007F00091F08130C1F42AE030E040E060E080E038
:10080000D6DD40E02EC02AE030E040E060E080E04D
:10081000CEDD40E036C02AE030E040E060E080E03D
:10082000C6DD40E037C0853061F0863099F0843015
:10083000D9F42AE030E040E060E080E0B8DD40E05C
:1008400007C02AE030E040E060E080E0B0DD41E059
:1008500061E008C02AE030E040E060E080E0A7DD31
:1008600041E060E080E018C0883069F0893089F0AC
:100870008730A1F42AE030E040E060E080E097DDDE
:1008800041E060E008C02AE030E040E060E080E065
:100890008EDD41E061E081E078DD089580E008953B
:1008A000823031F0833031F0813031F440E01BC0D0
:1008B00040E01DC040E01EC0853039F0863041F078
:1008C000843051F440E064E105C044E165E002C0D9
:1008D00044E160E080E02EC0883041F0893049F08A
:1008E000873051F444E160E084E124C045E065E0F4
:1008F000FBCF44E164E1F8CF8C3089F038F48A30E2
:1009000059F08B3099F440E060E00EC08D3049F032
:100910008E3061F440E007C040E063E0DBCF43E0AD
:1009200002C043E0D6CF63E083E004C0811104C07D
:1009300040E060E02ADD089580E00895A1E0B0E0A5
:10094000E3EAF4E0A2C28C01E12CF12CE016F106FE
:1009500051F0862F6983A4DF6981813029F08FEF00
:10096000E81AF80AF3CF80E02196E6E0AAC20F93D6
:100970001F93CF93DF938C01C1E0D0E0BE01C8018B
:10098000DDDF813041F080917A00811104C0219631
:10099000CA30D10599F7DF91CF911F910F9108953A
:1009A000CF93DF93833091F038F4813061F082305F
:1009B000A1F482E390E00CC0843061F0853069F4EA
:1009C0008CED95E005C08AE090E002C086E990E0F9
:1009D000AFDD27C084EF91E0FBCF873069F028F4CA
:1009E0008630F9F484E690E00CC0883041F089301C
:1009F000C1F4C1E0D0E00FC080E991E002C080EB1B
:100A000094E0B5DF0EC080917A0081110AC0219672
:100A1000C930D10531F0BE018DE290E08FDF813029
:100A200091F7DF91CF910895833069F128F48130F7
:100A300049F08230B1F054C08430A1F1853009F41E
:100A400040C04EC061E070E08CE390E077DF813021
:100A500009F4C8C080917A008111C4C064E070E0DC
:100A60000EC064E070E08CE390E068DF813009F450
:100A7000B9C080917A008111B5C066E070E08CE366
:100A800090E05CDF089566E070E08CE390E056DF74
:100A9000813009F4A7C080917A008111A3C061E080
:100AA00070E0EDCF62E070E08CE390E047DF8130F2
:100AB00009F498C080917A00811194C065E070E0DB
:100AC000DECF61E070E08CE390E038DF813009F444
:100AD00089C080917A00811185C062E070E0CFCF3B
:100AE000873031F118F4863041F00895883009F4E8
:100AF00045C0893009F450C0089560E070E08DE28F
:100B000090E01CDF813009F46DC080917A00811182
:100B100069C061E070E08DE290E010DF813009F49F
:100B200061C080917A0081115DC064E070E01AC0FC
:100B300060E070E08DE290E001DF813009F452C0A6
:100B400080917A0081114EC061E070E08DE290E00A
:100B5000F5DE813009F446C080917A00811142C0EF
:100B600066E070E08DE290E0E9DE8130D9F18091BD
:100B70007A00811137C061E070E031C060E070E060
:100B80008DE290E0DBDE813069F180917A008111A5
:100B900029C069E070E00DC060E070E08DE290E097
:100BA000CDDE8130F9F080917A0081111BC064E0C4
:100BB00070E08DE290E0C2DE8130A1F080917A0099
:100BC000811110C066E070E08DE290E0B7DE813008
:100BD00049F080917A00811105C064E070E08DE2F7
:100BE00090E04FCF0895CF93DF93EB01642F70E037
:100BF000A5DE813011F481E010C080917A0081116E
:100C0000FACF60E070E0CE0199DE8130A1F381E09F
:100C100090917A00911101C080E0DF91CF91089509
:100C2000833009F43CC028F4813049F0823019F156
:100C300054C0843009F442C0853081F04EC041E098
:100C40006DE270E08DE290E0CEDF813009F492C079
:100C500080917A0081118EC044E01BC041E06DE2BA
:100C600070E08DE290E0BFDF813009F483C08091B5
:100C70007A0081117FC044E06DE270E08DE290E087
:100C8000B2DF813009F476C080917A00811172C0A0
:100C900046E06DE270E08DE290E0A5DF089546E069
:100CA0006DE270E08DE290E09EDF813009F462C079
:100CB00080917A0081115EC041E0EBCF42E06DE2AD
:100CC00070E08DE290E08FDF813009F453C08091B5
:100CD0007A0081114FC045E0DCCF873059F018F41D
:100CE000863031F008958830B9F1893029F00895BF
:100CF00041E033C044E031C041E06DE270E08DE29C
:100D000090E071DF8130B1F180917A00811132C0C1
:100D100049E06DE270E08DE290E065DF813051F1F5
:100D200080917A00811126C044E06DE270E08DE28E
:100D300090E059DF8130F1F080917A0081111AC082
:100D400049E06DE270E08DE290E04DDF813091F09E
:100D500080917A0081110EC046E06DE270E08DE274
:100D600090E041DF813031F080917A00811102C042
:100D700049E08FCF0895982F862F9330B9F050F423
:100D8000913091F09230F9F4462F64E170E084E103
:100D900090E011C0943089F09530A9F4462F64EFAB
:100DA00071E084EF91E007C07BDD0895462F62E398
:100DB00070E082E390E017DF0895462F64E670E06C
:100DC00084E690E0F8CF983081F028F4963049F02E
:100DD000973049F008959A3061F048F09B3059F00F
:100DE00008953ADB0895DCDD08951ADF08951CDECE
:100DF000089585DC0895F9DC08956CD9C6D980E2A0
:100E00008BBF80E185BBF89410927A0080917500C9
:100E1000811104C017BA18BA13D9F8CF80917A009B
:100E200081111AC080917600811105C06091770010
:100E3000809174000FC0809179008823B9F080916F
:100E4000780090E0FC01E558FF4FDC01AC59BF4F42
:100E500060818C9190DFDACF8A3049F08B3039F0A5
:100E60008C3029F08D3019F08E3009F080E018DDDB
:100E7000CDCF2F923F924F925F926F927F928F923F
:100E80009F92AF92BF92CF92DF92EF92FF920F9319
:100E90001F93CF93DF93CDB7DEB7CA1BDB0B0FB623
:100EA000F894DEBF0FBECDBF09942A8839884888E0
:100EB0005F846E847D848C849B84AA84B984C88476
:100EC000DF80EE80FD800C811B81AA81B981CE0F6D
:100ED000D11D0FB6F894DEBF0FBECDBFED01089552
:100EE000DC01862FE82FE199FECF1FBA05C0EEBBCB
:100EF000E09AE3950DB20D924150C8F70895E1993B
:100F0000FECF1FBA8EBBE09A99278DB30895DC01FE
:100F1000862F02C02D9104D04150E0F70895262F6E
:100F2000E199FECF1CBA1FBA8EBB2DBB0FB6F89449
:0E0F3000E29AE19A0FBE01960895F894FFCF61
:00000001FF
