:100000000EC01DC01DC01BC01AC019C018C017C02B
:1000100016C015C014C013C012C011C010C01124E6
:100020001FBECFE5D1E0DEBFCDBF20E0A0E6B0E04F
:1000300001C01D92AB38B207E1F7B6D642C7E0CF98
:100040001F920F920FB60F9211248F93809175001B
:10005000811103C082E0809375008F910F900FBED5
:100060000F901F901895809177008A3018F083E0E8
:1000700080937700809174008C3018F087E0809333
:100080007400EBE7F0E0A4E6B0E081E090819A3004
:1000900008F080839C919C3008F08C9331961196E7
:1000A00090E0EA38F90791F780917900803110F0FB
:1000B000109279008091790090917800981710F053
:1000C0008093780080917600823010F01092760054
:1000D0008AE080937500089585E290E0D4D68093FD
:1000E000770084E290E0CFD6809374004FE050E038
:1000F00064E170E08BE790E0B7D64FE050E064E059
:1001000070E084E690E0B0D682E090E0BCD68093C8
:10011000780083E090E0B7D68093790081E090E0AA
:10012000B2D68093760080E090E0ADD680937500E3
:100130009ACF6091770085E290E0B5D66091740027
:1001400084E290E0B0D64FE050E064E170E08BE7ED
:1001500090E0A1D64FE050E064E070E084E690E0EB
:100160009AD66091780082E090E09DD66091790007
:1001700083E090E098D66091760081E090E093D69D
:100180006091750080E090E08EC687E087BB87E1D4
:1001900088BB0895813526E4920760F08CE0809357
:1001A0007A00672B11F080E0089510927800109289
:1001B000790013C0813127E2920790F08BE08093A1
:1001C0007A00672B81F780917600811106C081E06B
:1001D000809376008093780024C01092760021C02E
:1001E00089352BE19207F8F0809176008111DBCF01
:1001F000809179008F30B8F69AE090937A00672B5F
:1002000091F68F5F8093790090E0FC01E558FF4FF5
:10021000209177002083FC01EC59FF4F209174005E
:10022000208321DF27C0893B2BE0920750F08EE02E
:1002300080937A00672B09F0B6CF83E08093750036
:1002400019C0893E23E09207C8F0809176008111A1
:10025000AACF8DE080937A00672B09F0A4CF80911C
:1002600074008F5F8C3008F081E08093740081E02F
:10027000809377005EDF10927A0021C0C39708F464
:1002800092CF672B09F08FCF80917600811109C042
:10029000809177008F5F8A3008F081E0809377004B
:1002A0000CC0809178008F5F8093780090917900E6
:1002B000981718F481E080937800D5DE3ADF81E06A
:1002C0000895B49B03C01092630003C081E0809343
:1002D000630060916300613049F480916100909106
:1002E00062000196909362008093610080916000AB
:1002F000681307C070E080916100909162004ADF4E
:1003000001C080E090916300911108C020916000CD
:10031000211104C01092620010926100909360005D
:10032000089590E0981710F422E201C020E2961799
:1003300008F42160941708F4246028BB9F5F94316F
:1003400089F7BFCFDF92EF92FF920F931F93CF9366
:10035000DF93F82EE62ED42E8901C0E0D0E0C0173E
:10036000D10741F04D2D6E2D8F2DDBDF813019F03F
:100370002196F5CF80E0DF91CF911F910F91FF90F3
:10038000EF90DF900895BF92CF92DF92EF92FF92AD
:100390000F931F93CF93DF93D82F162FF42EB22EE7
:1003A000C1E04F2D4C234E29612F6C23602B960109
:1003B0008D2F8C238B29C6DF813011F481E01BC087
:1003C00080917A008111FACFCF5FC53151F7C4E136
:1003D0004F2D4C234E29612F6C23602B96018D2FBE
:1003E0008C238B29AFDF813049F380917A00811112
:1003F000E5CFC15069F7DF91CF911F910F91FF9029
:10040000EF90DF90CF90BF900895CF92DF92EF9260
:100410000F93823061F0833091F08130C1F4E8ECC9
:10042000CE2ED12CE12C00E020E040E050C078EC52
:10043000C72ED12CE12C00E020E040E036C068EC73
:10044000C62ED12CE12C00E020E040E00DC085302C
:1004500069F08630A9F08430D9F458ECC52ED12C3F
:10046000E12C00E020E04FEF6FEF08C048ECC42E15
:10047000D12CE12C00E020E04FEF60E080E029C0CB
:1004800038ECC32ED12CE12C00E020E04FEF1FC050
:10049000883069F08930A1F08730E9F428ECC22E69
:1004A000D12CE12C00E020E04FEF6FEF11C098EC71
:1004B000C92ED12CE12C00E02FEF40E067E008C00E
:1004C00088ECC82ED12CE12C00E029E147E060E067
:1004D0008FEF59DF01C080E00F91EF90DF90CF9058
:1004E00008951F93CF93DF93EC0110E09E0140E04D
:1004F000612F84E127DF813009F450C080917A00B8
:1005000081114CC01F5F153189F713E19E0140E056
:1005100064E1812F17DF813009F440C080917A00B7
:1005200081113CC0115090F711E09E01412F64E110
:1005300080E008DF813091F180917A0081112EC036
:100540001F5F153191F713E19E0144E1612F80E0B7
:10055000F9DE813019F180917A0081111FC01150AC
:1005600098F711E09E0144E160E0812FEBDE8130DD
:10057000A9F080917A00811111C01F5F153191F7A8
:1005800013E19E01412F60E084E1DCDE813031F037
:1005900080917A00811102C0115098F7DF91CF91BC
:1005A0001F910895DF92EF92FF920F931F93CF93C5
:1005B000DF93D82EE62EF42ED0E010E000E0C4E168
:1005C00025E030E04D2F612F802FBCDE813061F0BF
:1005D00080917A00811107C0C1500D0D1E0DDF0DF5
:1005E000C111EECF01C081E0DF91CF911F910F913A
:1005F000FF90EF90DF900895CF93C4E122E030E0C8
:100600004C2F6C2F84E19EDE813009F456C080911E
:100610007A00811152C0C15089F722E030E040E0F9
:100620006C2F84E18FDE813009F447C080917A001D
:10063000811143C0CF5FC43181F722E030E040E058
:1006400064E18C2F7FDE8130C1F180917A008111CD
:1006500034C0C15091F722E030E04C2F64E180E0DB
:1006600071DE813051F180917A00811126C0CF5F17
:10067000C43189F722E030E044E16C2F80E062DE93
:100680008130D9F080917A00811117C0C15091F763
:10069000C4E122E030E04C2F60E080E053DE8130A6
:1006A00061F080917A00811108C0C15091F72AE071
:1006B00030E040E060E0CF9145CECF9108958330A7
:1006C000D1F038F4813051F0823059F540E061E0EA
:1006D00014C08430A1F08530B1F023C040E060C088
:1006E00040E060E081E05EDF813009F45CC0809131
:1006F0007A00811158C041E060E080E053CF41E0D2
:1007000061E081E0FBCF40E060E081E04BDF8130E1
:1007100009F449C080917A00811145C040E061E050
:10072000EDCF873049F018F48630D1F20895883043
:1007300039F08930B9F1089540E061E080E0D3CF2D
:1007400040E060E081E02EDF813069F180917A0045
:10075000811129C040E061E081E024DF813019F19E
:1007600080917A0081111FC040E061E01BDF813081
:10077000D1F080917A00811116C041E061E012DF72
:10078000813089F080917A0081110DC041E060E0F4
:1007900009DF813041F080917A00811104C041E08D
:1007A00060E0AFCF29CF0895823061F0833091F0BF
:1007B0008130C1F42AE030E040E060E080E0C2DD5A
:1007C00040E02EC02AE030E040E060E080E0BADDAA
:1007D00040E036C02AE030E040E060E080E0B2DD9A
:1007E00040E037C0853061F0863099F08430D9F42C
:1007F0002AE030E040E060E080E0A4DD40E007C0B7
:100800002AE030E040E060E080E09CDD41E061E033
:1008100008C02AE030E040E060E080E093DD41E0A5
:1008200060E080E018C0883069F0893089F0873056
:1008300099F42AE030E040E060E080E083DD41E0D0
:1008400060E008C02AE030E040E060E080E07ADD6F
:1008500041E061E081E065CD80E00895823031F0D3
:10086000833041F0813041F440E01BC040E065E05E
:1008700084E140C040E01AC0853039F0863041F054
:10088000843041F440E064E129C044E165E026C0E1
:1008900044E123C0883039F0893039F0873041F4A1
:1008A00044E160E0E5CF45E0E2CF44E164E1E0CF40
:1008B0008C3081F038F48A3051F08B3089F440E08C
:1008C00060E012C08D3041F08E3061F009C040E030
:1008D00063E004C043E007C043E060E080E00AC09A
:1008E0008F3021F440E063E083E004C0811103C055
:1008F00040E060E016CD80E00895FF920F931F93D3
:10090000CF93DF938C01F62EC0E0D0E0C017D10763
:1009100031F08F2DA3DF813019F02196F7CF80E0E1
:10092000DF91CF911F910F91FF9008950F931F9327
:10093000CF93DF938C01C1E0D0E0BE01C801DDDFC1
:10094000813041F080917A00811104C02196CA3033
:10095000D10599F7DF91CF911F910F910895CF9312
:10096000DF93833091F038F4813061F08230A9F464
:1009700082E390E00CC0843069F0853071F48CED36
:1009800095E005C08AE090E002C086E990E0DF9142
:10099000CF91A7CD84EF91E0FACF873069F028F4AA
:1009A000863001F584E690E00CC0883041F0893053
:1009B000C9F4C1E0D0E010C080E991E002C080EB52
:1009C00094E0DF91CF91B2CF80917A0081110AC07B
:1009D0002196C930D10531F0BE018DE290E08DDF66
:1009E000813091F7DF91CF910895833061F128F440
:1009F000813049F08230B1F053C0843099F18530B4
:100A000009F43FC04DC061E070E08CE390E075DF19
:100A1000813009F4C7C080917A008111C3C064E0BD
:100A200070E00EC064E070E08CE390E066DF81303F
:100A300009F4B8C080917A008111B4C066E070E01A
:100A40008CE390E0AEC066E070E08CE390E055DFB0
:100A5000813009F4A7C080917A008111A3C061E0C0
:100A600070E0EECF62E070E08CE390E046DF813032
:100A700009F498C080917A00811194C065E070E01B
:100A8000DFCF61E070E08CE390E037DF813009F484
:100A900089C080917A00811185C062E070E0D0CF7A
:100AA000873031F118F4863041F00895883009F428
:100AB00045C0893009F450C0089560E070E08DE2CF
:100AC00090E01BDF813009F46DC080917A008111C4
:100AD00069C061E070E08DE290E00FDF813009F4E1
:100AE00061C080917A0081115DC064E070E01AC03D
:100AF00060E070E08DE290E000DF813009F452C0E8
:100B000080917A0081114EC061E070E08DE290E04A
:100B1000F4DE813009F446C080917A00811142C030
:100B200066E070E08DE290E0E8DE8130D9F18091FE
:100B30007A00811137C061E070E031C060E070E0A0
:100B40008DE290E0DADE813069F180917A008111E6
:100B500029C069E070E00DC060E070E08DE290E0D7
:100B6000CCDE8130F9F080917A0081111BC064E005
:100B700070E08DE290E0C1DE8130A1F080917A00DA
:100B8000811110C066E070E08DE290E0B6DE813049
:100B900049F080917A00811105C064E070E08DE237
:100BA00090E0ABCE0895CF93DF93EB01642F70E01C
:100BB000A4DE813011F481E010C080917A008111AF
:100BC000FACF60E070E0CE0198DE8130A1F381E0E1
:100BD00090917A00911101C080E0DF91CF9108954A
:100BE0008330D9F030F4813049F0823009F440C0CC
:100BF0004EC0843009F1853071F149C041E06DE2A9
:100C000070E08DE290E0CFDF813009F492C08091F6
:100C10007A0081118EC044E055C046E06DE270E07C
:100C20008DE290E0C0DF813009F483C080917A00CA
:100C300081117FC041E046C042E06DE270E08DE28C
:100C400090E0B1DF813009F474C080917A008111A5
:100C500070C045E037C041E06DE270E08DE290E0A9
:100C6000A2DF813009F465C080917A00811161C0F2
:100C700044E06DE270E08DE290E095DF813009F4B0
:100C800058C080917A00811154C046E01BC0873063
:100C900061F018F4863039F00895883009F447C0BF
:100CA0008930A9F0089541E001C044E06DE270E0B0
:100CB0008DE290E078DF8130E1F180917A0081115E
:100CC00038C049E06DE270E08DE290E06CCF41E029
:100CD0006DE270E08DE290E066DF813051F180914D
:100CE0007A00811126C049E06DE270E08DE290E06B
:100CF0005ADF8130F1F080917A0081111AC044E00E
:100D00006DE270E08DE290E04EDF813091F08091F5
:100D10007A0081110EC049E06DE270E08DE290E052
:100D200042DF813031F080917A00811102C046E0CB
:100D3000BDCF0895982F862F9330B1F050F49130A5
:100D400091F09230E9F4462F64E170E084E190E0A4
:100D500010C0943079F0953099F4462F64EF71E02B
:100D600084EF91E006C07ACD462F62E370E082E323
:100D700090E019CF462F64E670E084E690E0F9CF6A
:100D8000983071F028F4963049F0973041F008958A
:100D90009A3041F030F09B3031F0089536CBDFCD02
:100DA0001FCF23CE8CCC00CD97D9EFD91BBE15BA5F
:100DB000F89410927A00C0E1D0E280917500823000
:100DC00089F4E3D91BBE15BAF8948AE080937500C4
:100DD00086B384FFFDCF83ED90E30197F1F700C068
:100DE0000000EBCF833099F417BAC8BB85B7877E74
:100DF000806185BF85B7806285BFDBBFC5BB789446
:100E000010927500889585B78F7D85BFD6CF80916C
:100E10007A0081111AC080917600811105C060911D
:100E20007700809174000FC0809179008823C9F009
:100E30008091780090E0FC01E558FF4FDC01AC594F
:100E4000BF4F60818C9176DFB8CF8A3059F08B30FC
:100E500049F08C3039F08D3029F08E3019F08F3018
:100E600009F080E0FBDCA9CFDC01862FE82FE199B7
:100E7000FECF1FBA05C0EEBBE09AE3950DB20D920E
:100E80004150C8F70895E199FECF1FBA8EBBE09A92
:100E900099278DB30895DC01862F02C02D9104D0CF
:100EA0004150E0F70895262FE199FECF1CBA1FBAF2
:100EB0008EBB2DBB0FB6F894E29AE19A0FBE019655
:060EC0000895F894FFCF35
:00000001FF
