:100000000EC01DC01DC01BC01AC019C018C017C02B
:1000100016C015C014C013C012C011C010C01124E6
:100020001FBECFE5D1E0DEBFCDBF20E0A0E6B0E04F
:1000300001C01D92AE38B207E1F716D7A9C7E0CFCD
:100040001F920F920FB60F9211248F93809176001A
:10005000811103C082E0809376008F910F900FBED4
:100060000F901F901895809179008A3018F081E0E8
:1000700080937900809175008C3018F081E0809336
:10008000750080917D00833010F010927D0080918A
:100090007400843010F010927400EEE7F0E0A4E6F3
:1000A000B0E081E090819A3008F080839C919C3090
:1000B00008F08C933196119690E0ED38F90791F79E
:1000C00080917B00803110F010927B0080917B004A
:1000D00090917A00981710F080937A0080917800C0
:1000E000823010F0109278008AE0809376000895B4
:1000F00087E290E02FD78093790086E290E02AD7BC
:10010000809375004FE050E064E170E08EE790E08E
:1001100012D74FE050E064E070E084E690E00BD747
:1001200082E090E017D780937A0083E090E012D7C6
:1001300080937B0081E090E00DD78093780080E091
:1001400090E008D78093760084E290E003D7809314
:100150007D0085E290E0FED68093740084CF6091AC
:10016000790087E290E006D76091750086E290E022
:1001700001D74FE050E064E170E08EE790E0F2D606
:100180004FE050E064E070E084E690E0EBD66091F0
:100190007A0082E090E0EED660917B0083E090E010
:1001A000E9D66091780081E090E0E4D66091760035
:1001B00080E090E0DFD660917D0084E290E0DAD6C6
:1001C0006091740085E290E0D5C68FE087BB8FE137
:1001D00088BB089589332AE4920760F08CE080930D
:1001E0007C00672B11F080E0089510927A00109245
:1001F0007B0013C081382EE3920790F08BE0809350
:100200007C00672B81F780917800811106C081E026
:100210008093780080937A0024C01092780021C0E7
:10022000813E2EE29207F8F0809178008111DBCFB9
:1002300080917B008F30B8F69AE090937C00672B1A
:1002400091F68F5F80937B0090E0FC01E258FF4FB6
:10025000209179002083FC01EC59FF4F209175001B
:10026000208301DF51C0893223E2920788F081E1C7
:1002700080937C00672B09F0B6CF809174008F5F6C
:10028000843018F4809374003FC0109274003CC016
:10029000813727E1920788F080E180937C00672B0B
:1002A00009F0A1CF80917D008F5F833018F4809397
:1002B0007D002AC010927D0027C0893B2BE0920769
:1002C00050F08EE080937C00672B09F08CCF83E0A8
:1002D0008093760019C0893E23E09207C8F0809190
:1002E0007800811180CF8DE080937C00672B09F02E
:1002F0007ACF809175008F5F8C3008F081E0809319
:10030000750081E0809379002ADF10927C0022C082
:100310008536910508F467CF672B09F064CF80918B
:100320007800811109C0809179008F5F8A3008F0D0
:1003300081E0809379000CC080917A008F5F809378
:100340007A0090917B00981718F481E080937A00EE
:100350008ADE05DF81E00895B49B03C0109263003C
:1003600003C081E08093630060916300613049F4D1
:100370008091610090916200019690936200809359
:10038000610080916000681307C070E08091610097
:10039000909162001FDF01C080E090916300911195
:1003A00008C020916000211104C0109262001092D8
:1003B000610090936000089590917400913071F005
:1003C000C8F0923019F0933069F016C0262F30E053
:1003D000280F311D240F311D232B61F09CE89093D1
:1003E00077000AC0262F30E0280F311D240F311D61
:1003F000232BA1F310927700309177009091630046
:10040000911117C090917D00913049F486958695A1
:100410006695669546954695369536950AC092300E
:1004200041F482958F7062956F7042954F7032954E
:100430003F7020E0281710F492E201C090E22617E6
:1004400008F49160241708F49460231708F4986066
:1004500098BB2F5F2C3871F77FCF823031F083301B
:1004600031F0813031F440E010C040E018C040E08D
:1004700019C0853031F0863039F0843049F440E0DD
:1004800001C041E061E002C041E060E080E00CC0FA
:10049000883039F0893029F0873039F441E060E064
:1004A00002C041E061E081E087CF80E00895DF9203
:1004B000EF92FF920F931F93CF93DF93F82EE62EC8
:1004C000D42E8901C0E0D0E0C017D10741F04D2DF6
:1004D0006E2D8F2D71DF813019F02196F5CF80E0E0
:1004E000DF91CF911F910F91FF90EF90DF900895D2
:1004F000BF92CF92DF92EF92FF920F931F93CF9311
:10050000DF93D82F162FF42EB22EC1E04F2D4C239F
:100510004E29612F6C23602B96018D2F8C238B2904
:10052000C6DF813011F481E01BC080917C00811115
:10053000FACFCF5FCD3851F7CCE84F2D4C234E2961
:10054000612F6C23602B96018D2F8C238B29AFDFBD
:10055000813049F380917C008111E5CFC15069F76A
:10056000DF91CF911F910F91FF90EF90DF90CF908F
:10057000BF900895CF92DF92EF920F93823061F097
:10058000833091F08130C1F4EEE1CE2ED12CE12CFC
:1005900000E020E040E050C07EE1C72ED12CE12CED
:1005A00000E020E040E036C06EE1C62ED12CE12C08
:1005B00000E020E040E00DC0853069F08630A9F011
:1005C0008430D9F45EE1C52ED12CE12C00E020E08E
:1005D0004FEF6FEF08C04EE1C42ED12CE12C00E0AC
:1005E00020E04FEF60E080E029C03EE1C32ED12C37
:1005F000E12C00E020E04FEF1FC0883069F0893027
:10060000A1F08730E9F42EE1C22ED12CE12C00E0DC
:1006100020E04FEF6FEF11C09EE1C92ED12CE12CED
:1006200000E02FEF40E06FE308C08EE1C82ED12C30
:10063000E12C00E029E14FE360E08FEF59DF01C0DA
:1006400080E00F91EF90DF90CF9008951F93CF93AC
:10065000DF93EC0110E09E0140E0612F8CE827DF82
:10066000813009F450C080917C0081114CC01F5F23
:100670001D3889F71BE89E0140E06CE8812F17DFE9
:10068000813009F440C080917C0081113CC0115040
:1006900090F711E09E01412F6CE880E008DF813087
:1006A00091F180917C0081112EC01F5F1D3891F760
:1006B0001BE89E014CE8612F80E0F9DE813019F1E2
:1006C00080917C0081111FC0115098F711E09E01AC
:1006D0004CE860E0812FEBDE8130A9F080917C0056
:1006E000811111C01F5F1D3891F71BE89E01412F3A
:1006F00060E08CE8DCDE813031F080917C0081119B
:1007000002C0115098F7DF91CF911F910895DF92A9
:10071000EF92FF920F931F93CF93DF93D82EE62E85
:10072000F42ED0E010E000E0CCE825E030E04D2FE2
:10073000612F802FBCDE813061F080917C008111BF
:1007400007C0C1500D0D1E0DDF0DC111EECF01C050
:1007500081E0DF91CF911F910F91FF90EF90DF909B
:100760000895CF93CCE822E030E04C2F6C2F8CE83A
:100770009EDE813009F456C080917C00811152C008
:10078000C15089F722E030E040E06C2F8CE88FDE2A
:10079000813009F447C080917C00811143C0CF5F54
:1007A000CC3881F722E030E040E06CE88C2F7FDE2F
:1007B0008130C1F180917C00811134C0C15091F72A
:1007C00022E030E04C2F6CE880E071DE813051F1A6
:1007D00080917C00811126C0CF5FCC3889F722E060
:1007E00030E04CE86C2F80E062DE8130D9F08091FF
:1007F0007C00811117C0C15091F7CCE822E030E0B5
:100800004C2F60E080E053DE813061F080917C000D
:10081000811108C0C15091F72AE030E040E060E06B
:10082000CF9145CECF9108958330D1F038F4813007
:1008300051F0823059F540E061E014C08430A1F0FD
:100840008530B1F023C040E060C040E060E081E06E
:100850005EDF813009F45CC080917C00811158C05A
:1008600041E060E080E053CF41E061E081E0FBCF18
:1008700040E060E081E04BDF813009F449C08091C5
:100880007C00811145C040E061E0EDCF873049F048
:1008900018F48630D1F20895883039F08930B9F1F2
:1008A000089540E061E080E0D3CF40E060E081E087
:1008B0002EDF813069F180917C00811129C040E0F8
:1008C00061E081E024DF813019F180917C008111A9
:1008D0001FC040E061E01BDF8130D1F080917C00DF
:1008E000811116C041E061E012DF813089F0809112
:1008F0007C0081110DC041E060E009DF813041F0F2
:1009000080917C00811104C041E060E0AFCF29CF2D
:100910000895813049F030F0823041F0833041F465
:1009200040E021C040E034C040E017C040E018C0C3
:10093000853039F0863041F0843041F440E06CE895
:1009400038C04CE862E335C04CE822C0883039F04A
:10095000893041F0873051F44CE860E005C042E353
:1009600062E302C04CE86CE88CE824C08C30C1F033
:1009700030F48A3051F08B3069F440E015C08D308E
:1009800031F08E3039F440E00CC040E011C04AE054
:1009900060E00FC0803139F0813149F08F3059F477
:1009A0004AE06AE002C04AE060E08AE003C04AE050
:1009B0006AE080E001CD80E00895FF920F931F93DD
:1009C000CF93DF938C01F62EC0E0D0E0C017D107A3
:1009D00031F08F2D9EDF813019F02196F7CF80E026
:1009E000DF91CF911F910F91FF9008950F931F9367
:1009F000CF93DF938C01C1E0D0E0BE01C801DDDF01
:100A0000813041F080917C00811104C02196CA3070
:100A1000D10599F7DF91CF911F910F910895CF9351
:100A2000DF93833091F038F4813061F08230A9F4A3
:100A30008AE090E00CC0843069F0853071F484EF76
:100A400091E005C082E090E002C082E390E0DF9197
:100A5000CF91FCCD84E690E0FACF873069F028F49E
:100A6000863001F584E690E00CC0883041F0893092
:100A7000C9F4C1E0D0E010C080E991E002C080EB91
:100A800094E0DF91CF91B2CF80917C0081110AC0B8
:100A90002196C930D10531F0BE018DE290E08DDFA5
:100AA000813091F7DF91CF910895833061F128F47F
:100AB000813049F08230B1F053C0843099F18530F3
:100AC00009F43FC04DC061E070E08CE390E075DF59
:100AD000813009F4C7C080917C008111C3C064E0FB
:100AE00070E00EC064E070E08CE390E066DF81307F
:100AF00009F4B8C080917C008111B4C066E070E058
:100B00008CE390E0AEC066E070E08CE390E055DFEF
:100B1000813009F4A7C080917C008111A3C061E0FD
:100B200070E0EECF62E070E08CE390E046DF813071
:100B300009F498C080917C00811194C065E070E058
:100B4000DFCF61E070E08CE390E037DF813009F4C3
:100B500089C080917C00811185C062E070E0D0CFB7
:100B6000873031F118F4863041F00895883009F467
:100B700045C0893009F450C0089560E070E08DE20E
:100B800090E01BDF813009F46DC080917C00811101
:100B900069C061E070E08DE290E00FDF813009F420
:100BA00061C080917C0081115DC064E070E01AC07A
:100BB00060E070E08DE290E000DF813009F452C027
:100BC00080917C0081114EC061E070E08DE290E088
:100BD000F4DE813009F446C080917C00811142C06E
:100BE00066E070E08DE290E0E8DE8130D9F180913E
:100BF0007C00811137C061E070E031C060E070E0DE
:100C00008DE290E0DADE813069F180917C00811123
:100C100029C069E070E00DC060E070E08DE290E016
:100C2000CCDE8130F9F080917C0081111BC064E042
:100C300070E08DE290E0C1DE8130A1F080917C0017
:100C4000811110C066E070E08DE290E0B6DE813088
:100C500049F080917C00811105C064E070E08DE274
:100C600090E0ABCE0895CF93DF93EB01642F70E05B
:100C7000A4DE813011F481E010C080917C008111EC
:100C8000FACF60E070E0CE0198DE8130A1F381E020
:100C900090917C00911101C080E0DF91CF91089587
:100CA0008330D9F030F4813049F0823009F440C00B
:100CB0004EC0843009F1853071F149C041E06DE2E8
:100CC00070E08DE290E0CFDF813009F492C0809136
:100CD0007C0081118EC044E055C046E06DE270E0BA
:100CE0008DE290E0C0DF813009F483C080917C0008
:100CF00081117FC041E046C042E06DE270E08DE2CC
:100D000090E0B1DF813009F474C080917C008111E2
:100D100070C045E037C041E06DE270E08DE290E0E8
:100D2000A2DF813009F465C080917C00811161C02F
:100D300044E06DE270E08DE290E095DF813009F4EF
:100D400058C080917C00811154C046E01BC08730A0
:100D500061F018F4863039F00895883009F447C0FE
:100D60008930A9F0089541E001C044E06DE270E0EF
:100D70008DE290E078DF8130E1F180917C0081119B
:100D800038C049E06DE270E08DE290E06CCF41E068
:100D90006DE270E08DE290E066DF813051F180918C
:100DA0007C00811126C049E06DE270E08DE290E0A8
:100DB0005ADF8130F1F080917C0081111AC044E04B
:100DC0006DE270E08DE290E04EDF813091F0809135
:100DD0007C0081110EC049E06DE270E08DE290E090
:100DE00042DF813031F080917C00811102C046E009
:100DF000BDCF0895982F862F9330B1F050F49130E5
:100E000091F09230E9F4462F64E170E084E190E0E3
:100E100010C0943079F0953099F4462F64EF71E06A
:100E200084EF91E006C075CD462F62E370E082E367
:100E300090E019CF462F64E670E084E690E0F9CFA9
:100E4000983071F028F4963049F0973041F00895C9
:100E50009A3041F030F09B3031F008958BCBDFCDEC
:100E60001FCF23CEE1CCF9CA43D9AFD91BBE15BAE7
:100E7000F89410927C00C0E2809176008230A1F458
:100E8000A4D91BBE15BAF8948AE08093760086B385
:100E900084FFFDCF2FE788E391E021508040904010
:100EA000E1F700C00000E8CF8330A1F417BA90E169
:100EB00098BB85B7877E806185BF85B7806285BF17
:100EC000CBBF95BB789410927600889585B78F7DBF
:100ED00085BFD2CF80917C0081111AC080917800AB
:100EE000811105C060917900809175000FC08091DB
:100EF0007B008823E9F080917A0090E0FC01E258C1
:100F0000FF4FDC01AC59BF4F60818C9173DFB4CFD0
:100F10008A3079F08B3069F08C3059F08D3049F09F
:100F20008E3039F08F3029F0803119F0813109F09D
:100F300080E0EFDCA1CFDC01862FE82FE199FECF26
:100F40001FBA05C0EEBBE09AE3950DB20D92415079
:100F5000C8F70895E199FECF1FBA8EBBE09A992792
:100F60008DB30895DC01862F02C02D9104D041502D
:100F7000E0F70895262FE199FECF1CBA1FBA8EBB69
:100F80002DBB0FB6F894E29AE19A0FBE0196089530
:040F9000F894FFCF03
:00000001FF
