:100000000EC01DC01DC01BC01AC019C018C017C02B
:1000100016C015C014C013C012C011C010C01124E6
:100020001FBECFE5D2E0DEBFCDBF20E0A0E6B0E04E
:1000300001C01D92AF38B207E1F712D7BBC7E0CFBE
:100040001F920F920FB60F9211248F938091770019
:10005000811103C082E0809377008F910F900FBED3
:100060000F901F90189580917A008A3018F081E0E7
:1000700080937A00809176008C3018F081E0809334
:10008000760080917E00833010F010927E00809187
:100090007500843010F010927500EFE7F0E0A5E6EF
:1000A000B0E081E090819A3008F080839C919C3090
:1000B00008F08C933196119690E0EE38F90791F79D
:1000C00080917C00803110F010927C0080917C0047
:1000D00090917B00981710F080937B0080917900BD
:1000E000823010F010927900089587E290E043D7B3
:1000F00080937A0086E290E03ED7809376004FE0CE
:1001000050E064E170E08FE790E025D74FE050E0E9
:1001100064E070E085E690E01ED782E090E02BD7A7
:1001200080937B0083E090E026D780937C0081E081
:1001300090E021D78093790080E090E01CD78093F5
:10014000770084E290E017D780937E0085E290E00C
:1001500012D78093750087CF60917A0087E290E094
:100160001BD76091760086E290E016D74FE050E012
:1001700064E170E08FE790E006D74FE050E064E084
:1001800070E085E690E0FFD660917B0082E090E031
:1001900003D760917C0083E090E0FED66091790007
:1001A00081E090E0F9D66091770080E090E0F4D6AD
:1001B00060917E0084E290E0EFD66091750085E268
:1001C00090E0EAC68FE087BB8FE188BB0895893352
:1001D0002AE4920760F08CE080937D00672B11F099
:1001E00080E0089510927B0010927C0013C081384B
:1001F0002EE3920790F08BE080937D00672B81F7D0
:1002000080917900811106C081E08093790080930C
:100210007B0024C01092790021C0813E2EE292071B
:10022000F8F0809179008111DBCF80917C008F30D4
:10023000B8F69AE090937D00672B91F68F5F8093DC
:100240007C0090E0FC01E158FF4F20917A00208370
:10025000FC01EB59FF4F20917600208304DF50C052
:10026000893223E2920788F081E180937D00672B39
:1002700009F0B6CF809175008F5F843018F48093B9
:1002800075003EC0109275003BC0813727E1920790
:1002900088F080E180937D00672B09F0A1CF8091E9
:1002A0007E008F5F833018F480937E0029C0109207
:1002B0007E0026C0893B2BE0920748F08EE08093B9
:1002C0007D00672B09F08CCF1092770019C0893E12
:1002D00023E09207C8F080917900811181CF8DE0F1
:1002E00080937D00672B09F07BCF809176008F5F34
:1002F0008C3008F081E08093760081E080937A0072
:100300002BDF10927D0022C08536910508F468CF5E
:10031000672B09F065CF80917900811109C0809128
:100320007A008F5F8A3008F081E080937A000CC0F9
:1003300080917B008F5F80937B0090917C00981769
:1003400018F481E080937B008EDE06DF81E0089563
:10035000B49B03C01092630003C081E080936300EC
:1003600060916300613049F4809161009091620076
:100370000196909362008093610080916000681301
:1003800007C070E0809161009091620020DF01C0A1
:1003900080E090916300911108C0209160002111CC
:1003A00004C0109262001092610090936000089562
:1003B00090917500913071F0C8F0923019F093303F
:1003C00069F016C0262F30E0280F311D240F311D93
:1003D000232B61F09CE8909378000AC0262F30E030
:1003E000280F311D240F311D232BA1F3109278000B
:1003F0003091780090916400911117C090917E0027
:10040000913049F48695869566956695469546950C
:10041000369536950AC0923041F482958F70629578
:100420006F7042954F7032953F7020E0281710F49E
:1004300092E101C090E1261708F49160241708F4B6
:100440009460231708F4986098BB2F5F2C3871F7DD
:100450007FCF823031F0833031F0813031F440E0B1
:1004600010C040E018C040E019C0853031F086303F
:1004700039F0843049F440E001C041E061E002C05D
:1004800041E060E080E00CC0883039F0893029F02C
:10049000873039F441E060E002C041E061E081E092
:1004A00087CF80E00895DF92EF92FF920F931F9322
:1004B000CF93DF93F82EE62ED42E8901C0E0D0E052
:1004C000C017D10741F04D2D6E2D8F2D71DF81307A
:1004D00019F02196F5CF80E0DF91CF911F910F9118
:1004E000FF90EF90DF900895BF92CF92DF92EF924E
:1004F000FF920F931F93CF93DF93D82F162FF42ED5
:10050000B22EC1E04F2D4C234E29612F6C23602B5E
:1005100096018D2F8C238B29C6DF813011F481E069
:100520001BC080917D008111FACFCF5FCD3851F78C
:10053000CCE84F2D4C234E29612F6C23602B960164
:100540008D2F8C238B29AFDF813049F380917D0083
:100550008111E5CFC15069F7DF91CF911F910F91C4
:10056000FF90EF90DF90CF90BF900895CF92DF92F1
:10057000EF920F93823061F0833091F08130C1F4BB
:10058000EEE1CE2ED12CE12C00E020E040E050C086
:100590007EE1C72ED12CE12C00E020E040E036C007
:1005A0006EE1C62ED12CE12C00E020E040E00DC031
:1005B000853069F08630A9F08430D9F45EE1C52E2B
:1005C000D12CE12C00E020E04FEF6FEF08C04EE1AE
:1005D000C42ED12CE12C00E020E04FEF60E080E061
:1005E00029C03EE1C32ED12CE12C00E020E04FEFEA
:1005F0001FC0883069F08930A1F08730E9F42EE11E
:10060000C22ED12CE12C00E020E04FEF6FEF11C0A3
:100610009EE1C92ED12CE12C00E02FEF40E06FE3EA
:1006200008C08EE1C82ED12CE12C00E029E14FE377
:1006300060E08FEF59DF01C080E00F91EF90DF9015
:10064000CF9008951F93CF93DF93EC0110E09E01AC
:1006500040E0612F8CE827DF813009F450C08091A1
:100660007D0081114CC01F5F1D3889F71BE89E017A
:1006700040E06CE8812F17DF813009F440C08091A1
:100680007D0081113CC0115090F711E09E01412F77
:100690006CE880E008DF813091F180917D0081116C
:1006A0002EC01F5F1D3891F71BE89E014CE8612F9B
:1006B00080E0F9DE813019F180917D0081111FC049
:1006C000115098F711E09E014CE860E0812FEBDEBD
:1006D0008130A9F080917D00811111C01F5F1D380C
:1006E00091F71BE89E01412F60E08CE8DCDE813051
:1006F00031F080917D00811102C0115098F7DF9197
:10070000CF911F910895DF92EF92FF920F931F9365
:10071000CF93DF93D82EE62EF42ED0E010E000E049
:10072000CCE825E030E04D2F612F802FBCDE8130FA
:1007300061F080917D00811107C0C1500D0D1E0D2B
:10074000DF0DC111EECF01C081E0DF91CF911F918C
:100750000F91FF90EF90DF900895CF93CCE822E0C7
:1007600030E04C2F6C2F8CE89EDE813009F456C0AF
:1007700080917D00811152C0C15089F722E030E0A4
:1007800040E06C2F8CE88FDE813009F447C0809107
:100790007D00811143C0CF5FCC3881F722E030E08B
:1007A00040E06CE88C2F7FDE8130C1F180917D00CC
:1007B000811134C0C15091F722E030E04C2F6CE839
:1007C00080E071DE813051F180917D00811126C081
:1007D000CF5FCC3889F722E030E04CE86C2F80E026
:1007E00062DE8130D9F080917D00811117C0C15047
:1007F00091F7CCE822E030E04C2F60E080E053DE5F
:10080000813061F080917D00811108C0C15091F765
:100810002AE030E040E060E0CF9145CECF910895EE
:100820008330D1F038F4813051F0823059F540E016
:1008300061E014C08430A1F08530B1F023C040E005
:1008400060C040E060E081E05EDF813009F45CC0C0
:1008500080917D00811158C041E060E080E053CF7D
:1008600041E061E081E0FBCF40E060E081E04BDF10
:10087000813009F449C080917D00811145C040E07C
:1008800061E0EDCF873049F018F48630D1F2089559
:10089000883039F08930B9F1089540E061E080E0B6
:1008A000D3CF40E060E081E02EDF813069F18091BC
:1008B0007D00811129C040E061E081E024DF8130CA
:1008C00019F180917D0081111FC040E061E01BDFC4
:1008D0008130D1F080917D00811116C041E061E04E
:1008E00012DF813089F080917D0081110DC041E0DF
:1008F00060E009DF813041F080917D00811104C00A
:1009000041E060E0AFCF29CF0895813049F030F069
:10091000823041F0833041F440E021C040E034C0F7
:1009200040E017C040E018C0853039F0863041F013
:10093000843041F440E06CE838C04CE862E335C0F4
:100940004CE822C0883039F0893041F0873051F4CA
:100950004CE860E005C042E362E302C04CE86CE8AA
:100960008CE824C08C30C1F030F48A3051F08B30E8
:1009700069F440E015C08D3031F08E3039F440E03C
:100980000CC040E011C040E160E00FC0803139F0A0
:10099000813149F08F3059F440E160E102C040E11B
:1009A00060E080E103C040E160E180E001CD80E0F3
:1009B0000895FF920F931F93CF93DF938C01F62E30
:1009C000C0E0D0E0C017D10731F08F2D9EDF81301D
:1009D00019F02196F7CF80E0DF91CF911F910F9111
:1009E000FF9008950F931F93CF93DF938C01C1E085
:1009F000D0E0BE01C801DDDF813041F080917D0093
:100A0000811104C02196CA30D10599F7DF91CF91A9
:100A10001F910F910895CF93DF93833091F038F4B5
:100A2000813061F08230A9F48AE090E00CC084301B
:100A300069F0853071F484EF91E005C082E090E0C8
:100A400002C082E390E0DF91CF91FCCD84E690E09C
:100A5000FACF873069F028F4863001F584E690E01B
:100A60000CC0883041F08930C9F4C1E0D0E010C03A
:100A700080E991E002C080EB94E0DF91CF91B2CFAA
:100A800080917D0081110AC02196C930D10531F0D5
:100A9000BE018DE290E08DDF813091F7DF91CF9143
:100AA0000895833061F128F4813049F08230B1F04B
:100AB00053C0843099F1853009F43FC04DC061E0E6
:100AC00070E08CE390E075DF813009F4C7C080915D
:100AD0007D008111C3C064E070E00EC064E070E08E
:100AE0008CE390E066DF813009F4B8C080917D002E
:100AF0008111B4C066E070E08CE390E0AEC066E0C7
:100B000070E08CE390E055DF813009F4A7C080915C
:100B10007D008111A3C061E070E0EECF62E070E083
:100B20008CE390E046DF813009F498C080917D002D
:100B3000811194C065E070E0DFCF61E070E08CE38C
:100B400090E037DF813009F489C080917D00811108
:100B500085C062E070E0D0CF873031F118F4863084
:100B600041F00895883009F445C0893009F450C037
:100B7000089560E070E08DE290E01BDF813009F4C1
:100B80006DC080917D00811169C061E070E08DE2EF
:100B900090E00FDF813009F461C080917D00811108
:100BA0005DC064E070E01AC060E070E08DE290E04B
:100BB00000DF813009F452C080917D0081114EC068
:100BC00061E070E08DE290E0F4DE813009F446C02F
:100BD00080917D00811142C066E070E08DE290E07E
:100BE000E8DE8130D9F180917D00811137C061E06C
:100BF00070E031C060E070E08DE290E0DADE8130DC
:100C000069F180917D00811129C069E070E00DC01B
:100C100060E070E08DE290E0CCDE8130F9F0809110
:100C20007D0081111BC064E070E08DE290E0C1DEC8
:100C30008130A1F080917D00811110C066E070E0EC
:100C40008DE290E0B6DE813049F080917D00811127
:100C500005C064E070E08DE290E0ABCE0895CF93E4
:100C6000DF93EB01642F70E0A4DE813011F481E0AA
:100C700010C080917D008111FACF60E070E0CE015C
:100C800098DE8130A1F381E090917D00911101C047
:100C900080E0DF91CF9108958330D9F030F4813036
:100CA00049F0823009F440C04EC0843009F18530EB
:100CB00071F149C041E06DE270E08DE290E0CFDF7C
:100CC000813009F492C080917D0081118EC044E092
:100CD00055C046E06DE270E08DE290E0C0DF81300B
:100CE00009F483C080917D0081117FC041E046C03E
:100CF00042E06DE270E08DE290E0B1DF813009F416
:100D000074C080917D00811170C045E037C041E022
:100D10006DE270E08DE290E0A2DF813009F465C001
:100D200080917D00811161C044E06DE270E08DE250
:100D300090E095DF813009F458C080917D008111E9
:100D400054C046E01BC0873061F018F4863039F09B
:100D50000895883009F447C08930A9F0089541E02A
:100D600001C044E06DE270E08DE290E078DF813018
:100D7000E1F180917D00811138C049E06DE270E0C1
:100D80008DE290E06CCF41E06DE270E08DE290E0AA
:100D900066DF813051F180917D00811126C049E0EC
:100DA0006DE270E08DE290E05ADF8130F1F08091E9
:100DB0007D0081111AC044E06DE270E08DE290E0A8
:100DC0004EDF813091F080917D0081110EC049E0AD
:100DD0006DE270E08DE290E042DF813031F0809191
:100DE0007D00811102C046E0BDCF0895982F862F67
:100DF0009330B1F050F4913091F09230E9F4462FF5
:100E000064E170E084E190E010C0943079F09530B6
:100E100099F4462F64EF71E084EF91E006C075CD40
:100E2000462F62E370E082E390E019CF462F64E63C
:100E300070E084E690E0F9CF983071F028F49630B5
:100E400049F0973041F008959A3041F030F09B30EE
:100E500031F008958BCBDFCD1FCF23CEE1CCF9CA83
:100E60008AE08093770041D9ADD91BBE15BAF894BA
:100E700010927D00C0E280917700823029F5A2D9DE
:100E80001BBE15BAF8948AE08093770086B39AE087
:100E900086B3EFE3FCE93197F1F700C0000084FF6F
:100EA00003C01092770006C0915091F784FD02C0F4
:100EB00086B3FCCFFFE729EA83E0F1502040804071
:100EC000E1F700C00000D7CF811114C017BA90E13C
:100ED00098BB85B7877E806185BF85B7806285BFF7
:100EE000CBBF95BB789410927700889585B78F7D9E
:100EF00085BFC1CF80917D0081111AC0809179009A
:100F0000811105C060917A00809176000FC08091B8
:100F10007C008823E9F080917B0090E0FC01E1589F
:100F2000FF4FDC01AB59BF4F60818C915FDFA3CFD6
:100F30008A3079F08B3069F08C3059F08D3049F07F
:100F40008E3039F08F3029F0803119F0813109F07D
:100F500080E0DBDC90CFDC01CB01FC01E199FECF2E
:100F600006C0FFBBEEBBE09A31960DB20D92415028
:100F70005040B8F70895E199FECF9FBB8EBBE09A31
:100F800099278DB30895DC01CB0102C02D9105D0C6
:100F900041505040D8F70895262FE199FECF1CBA52
:100FA0009FBB8EBB2DBB0FB6F894E29AE19A0FBEA1
:080FB00001960895F894FFCFAB
:00000001FF
